{
	"contracts/DistributeFunding.sol": {
		"DistributeFunding": {
			"abi": [
				{
					"inputs": [
						{
							"internalType": "address",
							"name": "_tokenAddress",
							"type": "address"
						}
					],
					"stateMutability": "nonpayable",
					"type": "constructor"
				},
				{
					"inputs": [
						{
							"internalType": "address",
							"name": "owner",
							"type": "address"
						}
					],
					"name": "OwnableInvalidOwner",
					"type": "error"
				},
				{
					"inputs": [
						{
							"internalType": "address",
							"name": "account",
							"type": "address"
						}
					],
					"name": "OwnableUnauthorizedAccount",
					"type": "error"
				},
				{
					"anonymous": false,
					"inputs": [
						{
							"indexed": true,
							"internalType": "address",
							"name": "previousOwner",
							"type": "address"
						},
						{
							"indexed": true,
							"internalType": "address",
							"name": "newOwner",
							"type": "address"
						}
					],
					"name": "OwnershipTransferred",
					"type": "event"
				},
				{
					"inputs": [
						{
							"internalType": "address",
							"name": "_addr",
							"type": "address"
						},
						{
							"internalType": "uint256",
							"name": "_weight",
							"type": "uint256"
						}
					],
					"name": "addShareholder",
					"outputs": [],
					"stateMutability": "nonpayable",
					"type": "function"
				},
				{
					"inputs": [],
					"name": "claim",
					"outputs": [],
					"stateMutability": "nonpayable",
					"type": "function"
				},
				{
					"inputs": [],
					"name": "fundsReady",
					"outputs": [
						{
							"internalType": "bool",
							"name": "",
							"type": "bool"
						}
					],
					"stateMutability": "view",
					"type": "function"
				},
				{
					"inputs": [],
					"name": "owner",
					"outputs": [
						{
							"internalType": "address",
							"name": "",
							"type": "address"
						}
					],
					"stateMutability": "view",
					"type": "function"
				},
				{
					"inputs": [
						{
							"internalType": "uint256",
							"name": "amount",
							"type": "uint256"
						}
					],
					"name": "receiveFunds",
					"outputs": [],
					"stateMutability": "nonpayable",
					"type": "function"
				},
				{
					"inputs": [],
					"name": "renounceOwnership",
					"outputs": [],
					"stateMutability": "nonpayable",
					"type": "function"
				},
				{
					"inputs": [
						{
							"internalType": "address",
							"name": "",
							"type": "address"
						}
					],
					"name": "shareholders",
					"outputs": [
						{
							"internalType": "uint256",
							"name": "weight",
							"type": "uint256"
						},
						{
							"internalType": "bool",
							"name": "withdrawn",
							"type": "bool"
						}
					],
					"stateMutability": "view",
					"type": "function"
				},
				{
					"inputs": [],
					"name": "token",
					"outputs": [
						{
							"internalType": "contract MyToken",
							"name": "",
							"type": "address"
						}
					],
					"stateMutability": "view",
					"type": "function"
				},
				{
					"inputs": [],
					"name": "totalFundsReceived",
					"outputs": [
						{
							"internalType": "uint256",
							"name": "",
							"type": "uint256"
						}
					],
					"stateMutability": "view",
					"type": "function"
				},
				{
					"inputs": [
						{
							"internalType": "address",
							"name": "newOwner",
							"type": "address"
						}
					],
					"name": "transferOwnership",
					"outputs": [],
					"stateMutability": "nonpayable",
					"type": "function"
				}
			],
			"devdoc": {
				"errors": {
					"OwnableInvalidOwner(address)": [
						{
							"details": "The owner is not a valid owner account. (eg. `address(0)`)"
						}
					],
					"OwnableUnauthorizedAccount(address)": [
						{
							"details": "The caller account is not authorized to perform an operation."
						}
					]
				},
				"kind": "dev",
				"methods": {
					"addShareholder(address,uint256)": {
						"details": "Adaugă un beneficiar cu o anumită pondere. Poate fi apelat doar de owner înainte ca fondurile să fie virate."
					},
					"claim()": {
						"details": "Permite fiecărui acționar să își retragă partea, o singură dată."
					},
					"owner()": {
						"details": "Returns the address of the current owner."
					},
					"receiveFunds(uint256)": {
						"details": "Funcție apelată de CrowdFunding pentru a marca primirea tokenilor."
					},
					"renounceOwnership()": {
						"details": "Leaves the contract without owner. It will not be possible to call `onlyOwner` functions. Can only be called by the current owner. NOTE: Renouncing ownership will leave the contract without an owner, thereby disabling any functionality that is only available to the owner."
					},
					"transferOwnership(address)": {
						"details": "Transfers ownership of the contract to a new account (`newOwner`). Can only be called by the current owner."
					}
				},
				"version": 1
			},
			"evm": {
				"assembly": "    /* \"contracts/DistributeFunding.sol\":142:2101  contract DistributeFunding is Ownable {... */\n  mstore(0x40, 0x80)\n    /* \"contracts/DistributeFunding.sol\":535:540  false */\n  0x00\n    /* \"contracts/DistributeFunding.sol\":510:540  bool public fundsReady = false */\n  0x04\n  exp(0x0100, 0x00)\n  dup2\n  sload\n  dup2\n  0xff\n  mul\n  not\n  and\n  swap1\n  dup4\n  iszero\n  iszero\n  mul\n  or\n  swap1\n  sstore\n  pop\n    /* \"contracts/DistributeFunding.sol\":549:653  constructor(address _tokenAddress) Ownable(msg.sender) {... */\n  callvalue\n  dup1\n  iszero\n  tag_1\n  jumpi\n  revert(0x00, 0x00)\ntag_1:\n  pop\n  mload(0x40)\n  sub(codesize, bytecodeSize)\n  dup1\n  bytecodeSize\n  dup4\n  codecopy\n  dup2\n  dup2\n  add\n  0x40\n  mstore\n  dup2\n  add\n  swap1\n  tag_2\n  swap2\n  swap1\n  tag_3\n  jump\t// in\ntag_2:\n    /* \"contracts/DistributeFunding.sol\":592:602  msg.sender */\n  caller\n    /* \"@openzeppelin/contracts/access/Ownable.sol\":1297:1298  0 */\n  0x00\n    /* \"@openzeppelin/contracts/access/Ownable.sol\":1273:1299  initialOwner == address(0) */\n  0xffffffffffffffffffffffffffffffffffffffff\n  and\n    /* \"@openzeppelin/contracts/access/Ownable.sol\":1273:1285  initialOwner */\n  dup2\n    /* \"@openzeppelin/contracts/access/Ownable.sol\":1273:1299  initialOwner == address(0) */\n  0xffffffffffffffffffffffffffffffffffffffff\n  and\n  sub\n    /* \"@openzeppelin/contracts/access/Ownable.sol\":1269:1364  if (initialOwner == address(0)) {... */\n  tag_7\n  jumpi\n    /* \"@openzeppelin/contracts/access/Ownable.sol\":1350:1351  0 */\n  0x00\n    /* \"@openzeppelin/contracts/access/Ownable.sol\":1322:1353  OwnableInvalidOwner(address(0)) */\n  mload(0x40)\n  0x1e4fbdf700000000000000000000000000000000000000000000000000000000\n  dup2\n  mstore\n  0x04\n  add\n  tag_8\n  swap2\n  swap1\n  tag_9\n  jump\t// in\ntag_8:\n  mload(0x40)\n  dup1\n  swap2\n  sub\n  swap1\n  revert\n    /* \"@openzeppelin/contracts/access/Ownable.sol\":1269:1364  if (initialOwner == address(0)) {... */\ntag_7:\n    /* \"@openzeppelin/contracts/access/Ownable.sol\":1373:1405  _transferOwnership(initialOwner) */\n  tag_10\n    /* \"@openzeppelin/contracts/access/Ownable.sol\":1392:1404  initialOwner */\n  dup2\n    /* \"@openzeppelin/contracts/access/Ownable.sol\":1373:1391  _transferOwnership */\n  shl(0x20, tag_11)\n    /* \"@openzeppelin/contracts/access/Ownable.sol\":1373:1405  _transferOwnership(initialOwner) */\n  0x20\n  shr\n  jump\t// in\ntag_10:\n    /* \"@openzeppelin/contracts/access/Ownable.sol\":1225:1412  constructor(address initialOwner) {... */\n  pop\n    /* \"contracts/DistributeFunding.sol\":631:644  _tokenAddress */\n  dup1\n    /* \"contracts/DistributeFunding.sol\":615:620  token */\n  0x01\n  0x00\n    /* \"contracts/DistributeFunding.sol\":615:645  token = MyToken(_tokenAddress) */\n  0x0100\n  exp\n  dup2\n  sload\n  dup2\n  0xffffffffffffffffffffffffffffffffffffffff\n  mul\n  not\n  and\n  swap1\n  dup4\n  0xffffffffffffffffffffffffffffffffffffffff\n  and\n  mul\n  or\n  swap1\n  sstore\n  pop\n    /* \"contracts/DistributeFunding.sol\":549:653  constructor(address _tokenAddress) Ownable(msg.sender) {... */\n  pop\n    /* \"contracts/DistributeFunding.sol\":142:2101  contract DistributeFunding is Ownable {... */\n  jump(tag_13)\n    /* \"@openzeppelin/contracts/access/Ownable.sol\":2912:3099  function _transferOwnership(address newOwner) internal virtual {... */\ntag_11:\n    /* \"@openzeppelin/contracts/access/Ownable.sol\":2985:3001  address oldOwner */\n  0x00\n    /* \"@openzeppelin/contracts/access/Ownable.sol\":3004:3010  _owner */\n  0x00\n  0x00\n  swap1\n  sload\n  swap1\n  0x0100\n  exp\n  swap1\n  div\n  0xffffffffffffffffffffffffffffffffffffffff\n  and\n    /* \"@openzeppelin/contracts/access/Ownable.sol\":2985:3010  address oldOwner = _owner */\n  swap1\n  pop\n    /* \"@openzeppelin/contracts/access/Ownable.sol\":3029:3037  newOwner */\n  dup2\n    /* \"@openzeppelin/contracts/access/Ownable.sol\":3020:3026  _owner */\n  0x00\n  0x00\n    /* \"@openzeppelin/contracts/access/Ownable.sol\":3020:3037  _owner = newOwner */\n  0x0100\n  exp\n  dup2\n  sload\n  dup2\n  0xffffffffffffffffffffffffffffffffffffffff\n  mul\n  not\n  and\n  swap1\n  dup4\n  0xffffffffffffffffffffffffffffffffffffffff\n  and\n  mul\n  or\n  swap1\n  sstore\n  pop\n    /* \"@openzeppelin/contracts/access/Ownable.sol\":3083:3091  newOwner */\n  dup2\n    /* \"@openzeppelin/contracts/access/Ownable.sol\":3052:3092  OwnershipTransferred(oldOwner, newOwner) */\n  0xffffffffffffffffffffffffffffffffffffffff\n  and\n    /* \"@openzeppelin/contracts/access/Ownable.sol\":3073:3081  oldOwner */\n  dup2\n    /* \"@openzeppelin/contracts/access/Ownable.sol\":3052:3092  OwnershipTransferred(oldOwner, newOwner) */\n  0xffffffffffffffffffffffffffffffffffffffff\n  and\n  0x8be0079c531659141344cd1fd0a4f28419497f9722a3daafe3b4186f6b6457e0\n  mload(0x40)\n  mload(0x40)\n  dup1\n  swap2\n  sub\n  swap1\n  log3\n    /* \"@openzeppelin/contracts/access/Ownable.sol\":2975:3099  {... */\n  pop\n    /* \"@openzeppelin/contracts/access/Ownable.sol\":2912:3099  function _transferOwnership(address newOwner) internal virtual {... */\n  pop\n  jump\t// out\n    /* \"#utility.yul\":88:205   */\ntag_16:\n    /* \"#utility.yul\":197:198   */\n  0x00\n    /* \"#utility.yul\":194:195   */\n  0x00\n    /* \"#utility.yul\":187:199   */\n  revert\n    /* \"#utility.yul\":334:460   */\ntag_18:\n    /* \"#utility.yul\":371:378   */\n  0x00\n    /* \"#utility.yul\":411:453   */\n  0xffffffffffffffffffffffffffffffffffffffff\n    /* \"#utility.yul\":404:409   */\n  dup3\n    /* \"#utility.yul\":400:454   */\n  and\n    /* \"#utility.yul\":389:454   */\n  swap1\n  pop\n    /* \"#utility.yul\":334:460   */\n  swap2\n  swap1\n  pop\n  jump\t// out\n    /* \"#utility.yul\":466:562   */\ntag_19:\n    /* \"#utility.yul\":503:510   */\n  0x00\n    /* \"#utility.yul\":532:556   */\n  tag_29\n    /* \"#utility.yul\":550:555   */\n  dup3\n    /* \"#utility.yul\":532:556   */\n  tag_18\n  jump\t// in\ntag_29:\n    /* \"#utility.yul\":521:556   */\n  swap1\n  pop\n    /* \"#utility.yul\":466:562   */\n  swap2\n  swap1\n  pop\n  jump\t// out\n    /* \"#utility.yul\":568:690   */\ntag_20:\n    /* \"#utility.yul\":641:665   */\n  tag_31\n    /* \"#utility.yul\":659:664   */\n  dup2\n    /* \"#utility.yul\":641:665   */\n  tag_19\n  jump\t// in\ntag_31:\n    /* \"#utility.yul\":634:639   */\n  dup2\n    /* \"#utility.yul\":631:666   */\n  eq\n    /* \"#utility.yul\":621:684   */\n  tag_32\n  jumpi\n    /* \"#utility.yul\":680:681   */\n  0x00\n    /* \"#utility.yul\":677:678   */\n  0x00\n    /* \"#utility.yul\":670:682   */\n  revert\n    /* \"#utility.yul\":621:684   */\ntag_32:\n    /* \"#utility.yul\":568:690   */\n  pop\n  jump\t// out\n    /* \"#utility.yul\":696:839   */\ntag_21:\n    /* \"#utility.yul\":753:758   */\n  0x00\n    /* \"#utility.yul\":784:790   */\n  dup2\n    /* \"#utility.yul\":778:791   */\n  mload\n    /* \"#utility.yul\":769:791   */\n  swap1\n  pop\n    /* \"#utility.yul\":800:833   */\n  tag_34\n    /* \"#utility.yul\":827:832   */\n  dup2\n    /* \"#utility.yul\":800:833   */\n  tag_20\n  jump\t// in\ntag_34:\n    /* \"#utility.yul\":696:839   */\n  swap3\n  swap2\n  pop\n  pop\n  jump\t// out\n    /* \"#utility.yul\":845:1196   */\ntag_3:\n    /* \"#utility.yul\":915:921   */\n  0x00\n    /* \"#utility.yul\":964:966   */\n  0x20\n    /* \"#utility.yul\":952:961   */\n  dup3\n    /* \"#utility.yul\":943:950   */\n  dup5\n    /* \"#utility.yul\":939:962   */\n  sub\n    /* \"#utility.yul\":935:967   */\n  slt\n    /* \"#utility.yul\":932:1051   */\n  iszero\n  tag_36\n  jumpi\n    /* \"#utility.yul\":970:1049   */\n  tag_37\n  tag_16\n  jump\t// in\ntag_37:\n    /* \"#utility.yul\":932:1051   */\ntag_36:\n    /* \"#utility.yul\":1090:1091   */\n  0x00\n    /* \"#utility.yul\":1115:1179   */\n  tag_38\n    /* \"#utility.yul\":1171:1178   */\n  dup5\n    /* \"#utility.yul\":1162:1168   */\n  dup3\n    /* \"#utility.yul\":1151:1160   */\n  dup6\n    /* \"#utility.yul\":1147:1169   */\n  add\n    /* \"#utility.yul\":1115:1179   */\n  tag_21\n  jump\t// in\ntag_38:\n    /* \"#utility.yul\":1105:1179   */\n  swap2\n  pop\n    /* \"#utility.yul\":1061:1189   */\n  pop\n    /* \"#utility.yul\":845:1196   */\n  swap3\n  swap2\n  pop\n  pop\n  jump\t// out\n    /* \"#utility.yul\":1202:1320   */\ntag_22:\n    /* \"#utility.yul\":1289:1313   */\n  tag_40\n    /* \"#utility.yul\":1307:1312   */\n  dup2\n    /* \"#utility.yul\":1289:1313   */\n  tag_19\n  jump\t// in\ntag_40:\n    /* \"#utility.yul\":1284:1287   */\n  dup3\n    /* \"#utility.yul\":1277:1314   */\n  mstore\n    /* \"#utility.yul\":1202:1320   */\n  pop\n  pop\n  jump\t// out\n    /* \"#utility.yul\":1326:1548   */\ntag_9:\n    /* \"#utility.yul\":1419:1423   */\n  0x00\n    /* \"#utility.yul\":1457:1459   */\n  0x20\n    /* \"#utility.yul\":1446:1455   */\n  dup3\n    /* \"#utility.yul\":1442:1460   */\n  add\n    /* \"#utility.yul\":1434:1460   */\n  swap1\n  pop\n    /* \"#utility.yul\":1470:1541   */\n  tag_42\n    /* \"#utility.yul\":1538:1539   */\n  0x00\n    /* \"#utility.yul\":1527:1536   */\n  dup4\n    /* \"#utility.yul\":1523:1540   */\n  add\n    /* \"#utility.yul\":1514:1520   */\n  dup5\n    /* \"#utility.yul\":1470:1541   */\n  tag_22\n  jump\t// in\ntag_42:\n    /* \"#utility.yul\":1326:1548   */\n  swap3\n  swap2\n  pop\n  pop\n  jump\t// out\n    /* \"contracts/DistributeFunding.sol\":142:2101  contract DistributeFunding is Ownable {... */\ntag_13:\n  dataSize(sub_0)\n  dup1\n  dataOffset(sub_0)\n  0x00\n  codecopy\n  0x00\n  return\nstop\n\nsub_0: assembly {\n        /* \"contracts/DistributeFunding.sol\":142:2101  contract DistributeFunding is Ownable {... */\n      mstore(0x40, 0x80)\n      callvalue\n      dup1\n      iszero\n      tag_1\n      jumpi\n      revert(0x00, 0x00)\n    tag_1:\n      pop\n      jumpi(tag_2, lt(calldatasize, 0x04))\n      shr(0xe0, calldataload(0x00))\n      dup1\n      0x8827e09b\n      gt\n      tag_13\n      jumpi\n      dup1\n      0x8827e09b\n      eq\n      tag_8\n      jumpi\n      dup1\n      0x8da5cb5b\n      eq\n      tag_9\n      jumpi\n      dup1\n      0xbf27f585\n      eq\n      tag_10\n      jumpi\n      dup1\n      0xf2fde38b\n      eq\n      tag_11\n      jumpi\n      dup1\n      0xfc0c546a\n      eq\n      tag_12\n      jumpi\n      jump(tag_2)\n    tag_13:\n      dup1\n      0x07351832\n      eq\n      tag_3\n      jumpi\n      dup1\n      0x4e71d92d\n      eq\n      tag_4\n      jumpi\n      dup1\n      0x5c2930ad\n      eq\n      tag_5\n      jumpi\n      dup1\n      0x715018a6\n      eq\n      tag_6\n      jumpi\n      dup1\n      0x75724990\n      eq\n      tag_7\n      jumpi\n    tag_2:\n      revert(0x00, 0x00)\n        /* \"contracts/DistributeFunding.sol\":510:540  bool public fundsReady = false */\n    tag_3:\n      tag_14\n      tag_15\n      jump\t// in\n    tag_14:\n      mload(0x40)\n      tag_16\n      swap2\n      swap1\n      tag_17\n      jump\t// in\n    tag_16:\n      mload(0x40)\n      dup1\n      swap2\n      sub\n      swap1\n      return\n        /* \"contracts/DistributeFunding.sol\":1509:2098  function claim() external {... */\n    tag_4:\n      tag_18\n      tag_19\n      jump\t// in\n    tag_18:\n      stop\n        /* \"contracts/DistributeFunding.sol\":412:463  mapping(address => Shareholder) public shareholders */\n    tag_5:\n      tag_20\n      0x04\n      dup1\n      calldatasize\n      sub\n      dup2\n      add\n      swap1\n      tag_21\n      swap2\n      swap1\n      tag_22\n      jump\t// in\n    tag_21:\n      tag_23\n      jump\t// in\n    tag_20:\n      mload(0x40)\n      tag_24\n      swap3\n      swap2\n      swap1\n      tag_25\n      jump\t// in\n    tag_24:\n      mload(0x40)\n      dup1\n      swap2\n      sub\n      swap1\n      return\n        /* \"@openzeppelin/contracts/access/Ownable.sol\":2293:2394  function renounceOwnership() public virtual onlyOwner {... */\n    tag_6:\n      tag_26\n      tag_27\n      jump\t// in\n    tag_26:\n      stop\n        /* \"contracts/DistributeFunding.sol\":813:1087  function addShareholder(address _addr, uint256 _weight) external onlyOwner {... */\n    tag_7:\n      tag_28\n      0x04\n      dup1\n      calldatasize\n      sub\n      dup2\n      add\n      swap1\n      tag_29\n      swap2\n      swap1\n      tag_30\n      jump\t// in\n    tag_29:\n      tag_31\n      jump\t// in\n    tag_28:\n      stop\n        /* \"contracts/DistributeFunding.sol\":1195:1397  function receiveFunds(uint256 amount) external {... */\n    tag_8:\n      tag_32\n      0x04\n      dup1\n      calldatasize\n      sub\n      dup2\n      add\n      swap1\n      tag_33\n      swap2\n      swap1\n      tag_34\n      jump\t// in\n    tag_33:\n      tag_35\n      jump\t// in\n    tag_32:\n      stop\n        /* \"@openzeppelin/contracts/access/Ownable.sol\":1638:1723  function owner() public view virtual returns (address) {... */\n    tag_9:\n      tag_36\n      tag_37\n      jump\t// in\n    tag_36:\n      mload(0x40)\n      tag_38\n      swap2\n      swap1\n      tag_39\n      jump\t// in\n    tag_38:\n      mload(0x40)\n      dup1\n      swap2\n      sub\n      swap1\n      return\n        /* \"contracts/DistributeFunding.sol\":470:503  uint256 public totalFundsReceived */\n    tag_10:\n      tag_40\n      tag_41\n      jump\t// in\n    tag_40:\n      mload(0x40)\n      tag_42\n      swap2\n      swap1\n      tag_43\n      jump\t// in\n    tag_42:\n      mload(0x40)\n      dup1\n      swap2\n      sub\n      swap1\n      return\n        /* \"@openzeppelin/contracts/access/Ownable.sol\":2543:2758  function transferOwnership(address newOwner) public virtual onlyOwner {... */\n    tag_11:\n      tag_44\n      0x04\n      dup1\n      calldatasize\n      sub\n      dup2\n      add\n      swap1\n      tag_45\n      swap2\n      swap1\n      tag_22\n      jump\t// in\n    tag_45:\n      tag_46\n      jump\t// in\n    tag_44:\n      stop\n        /* \"contracts/DistributeFunding.sol\":187:207  MyToken public token */\n    tag_12:\n      tag_47\n      tag_48\n      jump\t// in\n    tag_47:\n      mload(0x40)\n      tag_49\n      swap2\n      swap1\n      tag_50\n      jump\t// in\n    tag_49:\n      mload(0x40)\n      dup1\n      swap2\n      sub\n      swap1\n      return\n        /* \"contracts/DistributeFunding.sol\":510:540  bool public fundsReady = false */\n    tag_15:\n      0x04\n      0x00\n      swap1\n      sload\n      swap1\n      0x0100\n      exp\n      swap1\n      div\n      0xff\n      and\n      dup2\n      jump\t// out\n        /* \"contracts/DistributeFunding.sol\":1509:2098  function claim() external {... */\n    tag_19:\n        /* \"contracts/DistributeFunding.sol\":1554:1564  fundsReady */\n      0x04\n      0x00\n      swap1\n      sload\n      swap1\n      0x0100\n      exp\n      swap1\n      div\n      0xff\n      and\n        /* \"contracts/DistributeFunding.sol\":1546:1601  require(fundsReady, \"Fondurile nu au fost inca virate\") */\n      tag_52\n      jumpi\n      mload(0x40)\n      0x08c379a000000000000000000000000000000000000000000000000000000000\n      dup2\n      mstore\n      0x04\n      add\n      tag_53\n      swap1\n      tag_54\n      jump\t// in\n    tag_53:\n      mload(0x40)\n      dup1\n      swap2\n      sub\n      swap1\n      revert\n    tag_52:\n        /* \"contracts/DistributeFunding.sol\":1612:1633  Shareholder storage s */\n      0x00\n        /* \"contracts/DistributeFunding.sol\":1636:1648  shareholders */\n      0x02\n        /* \"contracts/DistributeFunding.sol\":1636:1660  shareholders[msg.sender] */\n      0x00\n        /* \"contracts/DistributeFunding.sol\":1649:1659  msg.sender */\n      caller\n        /* \"contracts/DistributeFunding.sol\":1636:1660  shareholders[msg.sender] */\n      0xffffffffffffffffffffffffffffffffffffffff\n      and\n      0xffffffffffffffffffffffffffffffffffffffff\n      and\n      dup2\n      mstore\n      0x20\n      add\n      swap1\n      dup2\n      mstore\n      0x20\n      add\n      0x00\n      keccak256\n        /* \"contracts/DistributeFunding.sol\":1612:1660  Shareholder storage s = shareholders[msg.sender] */\n      swap1\n      pop\n        /* \"contracts/DistributeFunding.sol\":1700:1701  0 */\n      0x00\n        /* \"contracts/DistributeFunding.sol\":1689:1690  s */\n      dup2\n        /* \"contracts/DistributeFunding.sol\":1689:1697  s.weight */\n      0x00\n      add\n      sload\n        /* \"contracts/DistributeFunding.sol\":1689:1701  s.weight > 0 */\n      gt\n        /* \"contracts/DistributeFunding.sol\":1681:1742  require(s.weight > 0, \"Nu sunteti inregistrat ca beneficiar\") */\n      tag_55\n      jumpi\n      mload(0x40)\n      0x08c379a000000000000000000000000000000000000000000000000000000000\n      dup2\n      mstore\n      0x04\n      add\n      tag_56\n      swap1\n      tag_57\n      jump\t// in\n    tag_56:\n      mload(0x40)\n      dup1\n      swap2\n      sub\n      swap1\n      revert\n    tag_55:\n        /* \"contracts/DistributeFunding.sol\":1762:1763  s */\n      dup1\n        /* \"contracts/DistributeFunding.sol\":1762:1773  s.withdrawn */\n      0x01\n      add\n      0x00\n      swap1\n      sload\n      swap1\n      0x0100\n      exp\n      swap1\n      div\n      0xff\n      and\n        /* \"contracts/DistributeFunding.sol\":1761:1773  !s.withdrawn */\n      iszero\n        /* \"contracts/DistributeFunding.sol\":1753:1801  require(!s.withdrawn, \"Ati retras deja venitul\") */\n      tag_58\n      jumpi\n      mload(0x40)\n      0x08c379a000000000000000000000000000000000000000000000000000000000\n      dup2\n      mstore\n      0x04\n      add\n      tag_59\n      swap1\n      tag_60\n      jump\t// in\n    tag_59:\n      mload(0x40)\n      dup1\n      swap2\n      sub\n      swap1\n      revert\n    tag_58:\n        /* \"contracts/DistributeFunding.sol\":1887:1906  uint256 shareAmount */\n      0x00\n        /* \"contracts/DistributeFunding.sol\":1943:1946  100 */\n      0x64\n        /* \"contracts/DistributeFunding.sol\":1931:1932  s */\n      dup3\n        /* \"contracts/DistributeFunding.sol\":1931:1939  s.weight */\n      0x00\n      add\n      sload\n        /* \"contracts/DistributeFunding.sol\":1910:1928  totalFundsReceived */\n      sload(0x03)\n        /* \"contracts/DistributeFunding.sol\":1910:1939  totalFundsReceived * s.weight */\n      tag_61\n      swap2\n      swap1\n      tag_62\n      jump\t// in\n    tag_61:\n        /* \"contracts/DistributeFunding.sol\":1909:1946  (totalFundsReceived * s.weight) / 100 */\n      tag_63\n      swap2\n      swap1\n      tag_64\n      jump\t// in\n    tag_63:\n        /* \"contracts/DistributeFunding.sol\":1887:1946  uint256 shareAmount = (totalFundsReceived * s.weight) / 100 */\n      swap1\n      pop\n        /* \"contracts/DistributeFunding.sol\":1979:1980  0 */\n      0x00\n        /* \"contracts/DistributeFunding.sol\":1965:1976  shareAmount */\n      dup2\n        /* \"contracts/DistributeFunding.sol\":1965:1980  shareAmount > 0 */\n      gt\n        /* \"contracts/DistributeFunding.sol\":1957:2009  require(shareAmount > 0, \"Suma de retras este zero\") */\n      tag_65\n      jumpi\n      mload(0x40)\n      0x08c379a000000000000000000000000000000000000000000000000000000000\n      dup2\n      mstore\n      0x04\n      add\n      tag_66\n      swap1\n      tag_67\n      jump\t// in\n    tag_66:\n      mload(0x40)\n      dup1\n      swap2\n      sub\n      swap1\n      revert\n    tag_65:\n        /* \"contracts/DistributeFunding.sol\":2036:2040  true */\n      0x01\n        /* \"contracts/DistributeFunding.sol\":2022:2023  s */\n      dup3\n        /* \"contracts/DistributeFunding.sol\":2022:2033  s.withdrawn */\n      0x01\n      add\n      0x00\n        /* \"contracts/DistributeFunding.sol\":2022:2040  s.withdrawn = true */\n      0x0100\n      exp\n      dup2\n      sload\n      dup2\n      0xff\n      mul\n      not\n      and\n      swap1\n      dup4\n      iszero\n      iszero\n      mul\n      or\n      swap1\n      sstore\n      pop\n        /* \"contracts/DistributeFunding.sol\":2051:2056  token */\n      0x01\n      0x00\n      swap1\n      sload\n      swap1\n      0x0100\n      exp\n      swap1\n      div\n      0xffffffffffffffffffffffffffffffffffffffff\n      and\n        /* \"contracts/DistributeFunding.sol\":2051:2065  token.transfer */\n      0xffffffffffffffffffffffffffffffffffffffff\n      and\n      0xa9059cbb\n        /* \"contracts/DistributeFunding.sol\":2066:2076  msg.sender */\n      caller\n        /* \"contracts/DistributeFunding.sol\":2078:2089  shareAmount */\n      dup4\n        /* \"contracts/DistributeFunding.sol\":2051:2090  token.transfer(msg.sender, shareAmount) */\n      mload(0x40)\n      dup4\n      0xffffffff\n      and\n      0xe0\n      shl\n      dup2\n      mstore\n      0x04\n      add\n      tag_68\n      swap3\n      swap2\n      swap1\n      tag_69\n      jump\t// in\n    tag_68:\n      0x20\n      mload(0x40)\n      dup1\n      dup4\n      sub\n      dup2\n      0x00\n      dup8\n      gas\n      call\n      iszero\n      dup1\n      iszero\n      tag_71\n      jumpi\n      returndatacopy(0x00, 0x00, returndatasize)\n      revert(0x00, returndatasize)\n    tag_71:\n      pop\n      pop\n      pop\n      pop\n      mload(0x40)\n      returndatasize\n      not(0x1f)\n      0x1f\n      dup3\n      add\n      and\n      dup3\n      add\n      dup1\n      0x40\n      mstore\n      pop\n      dup2\n      add\n      swap1\n      tag_72\n      swap2\n      swap1\n      tag_73\n      jump\t// in\n    tag_72:\n      pop\n        /* \"contracts/DistributeFunding.sol\":1535:2098  {... */\n      pop\n      pop\n        /* \"contracts/DistributeFunding.sol\":1509:2098  function claim() external {... */\n      jump\t// out\n        /* \"contracts/DistributeFunding.sol\":412:463  mapping(address => Shareholder) public shareholders */\n    tag_23:\n      mstore(0x20, 0x02)\n      dup1\n      0x00\n      mstore\n      keccak256(0x00, 0x40)\n      0x00\n      swap2\n      pop\n      swap1\n      pop\n      dup1\n      0x00\n      add\n      sload\n      swap1\n      dup1\n      0x01\n      add\n      0x00\n      swap1\n      sload\n      swap1\n      0x0100\n      exp\n      swap1\n      div\n      0xff\n      and\n      swap1\n      pop\n      dup3\n      jump\t// out\n        /* \"@openzeppelin/contracts/access/Ownable.sol\":2293:2394  function renounceOwnership() public virtual onlyOwner {... */\n    tag_27:\n        /* \"@openzeppelin/contracts/access/Ownable.sol\":1531:1544  _checkOwner() */\n      tag_75\n        /* \"@openzeppelin/contracts/access/Ownable.sol\":1531:1542  _checkOwner */\n      tag_76\n        /* \"@openzeppelin/contracts/access/Ownable.sol\":1531:1544  _checkOwner() */\n      jump\t// in\n    tag_75:\n        /* \"@openzeppelin/contracts/access/Ownable.sol\":2357:2387  _transferOwnership(address(0)) */\n      tag_78\n        /* \"@openzeppelin/contracts/access/Ownable.sol\":2384:2385  0 */\n      0x00\n        /* \"@openzeppelin/contracts/access/Ownable.sol\":2357:2375  _transferOwnership */\n      tag_79\n        /* \"@openzeppelin/contracts/access/Ownable.sol\":2357:2387  _transferOwnership(address(0)) */\n      jump\t// in\n    tag_78:\n        /* \"@openzeppelin/contracts/access/Ownable.sol\":2293:2394  function renounceOwnership() public virtual onlyOwner {... */\n      jump\t// out\n        /* \"contracts/DistributeFunding.sol\":813:1087  function addShareholder(address _addr, uint256 _weight) external onlyOwner {... */\n    tag_31:\n        /* \"@openzeppelin/contracts/access/Ownable.sol\":1531:1544  _checkOwner() */\n      tag_81\n        /* \"@openzeppelin/contracts/access/Ownable.sol\":1531:1542  _checkOwner */\n      tag_76\n        /* \"@openzeppelin/contracts/access/Ownable.sol\":1531:1544  _checkOwner() */\n      jump\t// in\n    tag_81:\n        /* \"contracts/DistributeFunding.sol\":908:918  fundsReady */\n      0x04\n      0x00\n      swap1\n      sload\n      swap1\n      0x0100\n      exp\n      swap1\n      div\n      0xff\n      and\n        /* \"contracts/DistributeFunding.sol\":907:918  !fundsReady */\n      iszero\n        /* \"contracts/DistributeFunding.sol\":899:950  require(!fundsReady, \"Distribuirea a inceput deja\") */\n      tag_83\n      jumpi\n      mload(0x40)\n      0x08c379a000000000000000000000000000000000000000000000000000000000\n      dup2\n      mstore\n      0x04\n      add\n      tag_84\n      swap1\n      tag_85\n      jump\t// in\n    tag_84:\n      mload(0x40)\n      dup1\n      swap2\n      sub\n      swap1\n      revert\n    tag_83:\n        /* \"contracts/DistributeFunding.sol\":979:980  0 */\n      0x00\n        /* \"contracts/DistributeFunding.sol\":969:976  _weight */\n      dup2\n        /* \"contracts/DistributeFunding.sol\":969:980  _weight > 0 */\n      gt\n        /* \"contracts/DistributeFunding.sol\":969:998  _weight > 0 && _weight <= 100 */\n      dup1\n      iszero\n      tag_86\n      jumpi\n      pop\n        /* \"contracts/DistributeFunding.sol\":995:998  100 */\n      0x64\n        /* \"contracts/DistributeFunding.sol\":984:991  _weight */\n      dup2\n        /* \"contracts/DistributeFunding.sol\":984:998  _weight <= 100 */\n      gt\n      iszero\n        /* \"contracts/DistributeFunding.sol\":969:998  _weight > 0 && _weight <= 100 */\n    tag_86:\n        /* \"contracts/DistributeFunding.sol\":961:1019  require(_weight > 0 && _weight <= 100, \"Pondere invalida\") */\n      tag_87\n      jumpi\n      mload(0x40)\n      0x08c379a000000000000000000000000000000000000000000000000000000000\n      dup2\n      mstore\n      0x04\n      add\n      tag_88\n      swap1\n      tag_89\n      jump\t// in\n    tag_88:\n      mload(0x40)\n      dup1\n      swap2\n      sub\n      swap1\n      revert\n    tag_87:\n        /* \"contracts/DistributeFunding.sol\":1052:1079  Shareholder(_weight, false) */\n      mload(0x40)\n      dup1\n      0x40\n      add\n      0x40\n      mstore\n      dup1\n        /* \"contracts/DistributeFunding.sol\":1064:1071  _weight */\n      dup3\n        /* \"contracts/DistributeFunding.sol\":1052:1079  Shareholder(_weight, false) */\n      dup2\n      mstore\n      0x20\n      add\n        /* \"contracts/DistributeFunding.sol\":1073:1078  false */\n      0x00\n        /* \"contracts/DistributeFunding.sol\":1052:1079  Shareholder(_weight, false) */\n      iszero\n      iszero\n      dup2\n      mstore\n      pop\n        /* \"contracts/DistributeFunding.sol\":1030:1042  shareholders */\n      0x02\n        /* \"contracts/DistributeFunding.sol\":1030:1049  shareholders[_addr] */\n      0x00\n        /* \"contracts/DistributeFunding.sol\":1043:1048  _addr */\n      dup5\n        /* \"contracts/DistributeFunding.sol\":1030:1049  shareholders[_addr] */\n      0xffffffffffffffffffffffffffffffffffffffff\n      and\n      0xffffffffffffffffffffffffffffffffffffffff\n      and\n      dup2\n      mstore\n      0x20\n      add\n      swap1\n      dup2\n      mstore\n      0x20\n      add\n      0x00\n      keccak256\n        /* \"contracts/DistributeFunding.sol\":1030:1079  shareholders[_addr] = Shareholder(_weight, false) */\n      0x00\n      dup3\n      add\n      mload\n      dup2\n      0x00\n      add\n      sstore\n      0x20\n      dup3\n      add\n      mload\n      dup2\n      0x01\n      add\n      exp(0x0100, 0x00)\n      dup2\n      sload\n      dup2\n      0xff\n      mul\n      not\n      and\n      swap1\n      dup4\n      iszero\n      iszero\n      mul\n      or\n      swap1\n      sstore\n      pop\n      swap1\n      pop\n      pop\n        /* \"contracts/DistributeFunding.sol\":813:1087  function addShareholder(address _addr, uint256 _weight) external onlyOwner {... */\n      pop\n      pop\n      jump\t// out\n        /* \"contracts/DistributeFunding.sol\":1195:1397  function receiveFunds(uint256 amount) external {... */\n    tag_35:\n        /* \"contracts/DistributeFunding.sol\":1355:1361  amount */\n      dup1\n        /* \"contracts/DistributeFunding.sol\":1333:1351  totalFundsReceived */\n      0x03\n      0x00\n        /* \"contracts/DistributeFunding.sol\":1333:1361  totalFundsReceived += amount */\n      dup3\n      dup3\n      sload\n      tag_91\n      swap2\n      swap1\n      tag_92\n      jump\t// in\n    tag_91:\n      swap3\n      pop\n      pop\n      dup2\n      swap1\n      sstore\n      pop\n        /* \"contracts/DistributeFunding.sol\":1385:1389  true */\n      0x01\n        /* \"contracts/DistributeFunding.sol\":1372:1382  fundsReady */\n      0x04\n      0x00\n        /* \"contracts/DistributeFunding.sol\":1372:1389  fundsReady = true */\n      0x0100\n      exp\n      dup2\n      sload\n      dup2\n      0xff\n      mul\n      not\n      and\n      swap1\n      dup4\n      iszero\n      iszero\n      mul\n      or\n      swap1\n      sstore\n      pop\n        /* \"contracts/DistributeFunding.sol\":1195:1397  function receiveFunds(uint256 amount) external {... */\n      pop\n      jump\t// out\n        /* \"@openzeppelin/contracts/access/Ownable.sol\":1638:1723  function owner() public view virtual returns (address) {... */\n    tag_37:\n        /* \"@openzeppelin/contracts/access/Ownable.sol\":1684:1691  address */\n      0x00\n        /* \"@openzeppelin/contracts/access/Ownable.sol\":1710:1716  _owner */\n      0x00\n      0x00\n      swap1\n      sload\n      swap1\n      0x0100\n      exp\n      swap1\n      div\n      0xffffffffffffffffffffffffffffffffffffffff\n      and\n        /* \"@openzeppelin/contracts/access/Ownable.sol\":1703:1716  return _owner */\n      swap1\n      pop\n        /* \"@openzeppelin/contracts/access/Ownable.sol\":1638:1723  function owner() public view virtual returns (address) {... */\n      swap1\n      jump\t// out\n        /* \"contracts/DistributeFunding.sol\":470:503  uint256 public totalFundsReceived */\n    tag_41:\n      sload(0x03)\n      dup2\n      jump\t// out\n        /* \"@openzeppelin/contracts/access/Ownable.sol\":2543:2758  function transferOwnership(address newOwner) public virtual onlyOwner {... */\n    tag_46:\n        /* \"@openzeppelin/contracts/access/Ownable.sol\":1531:1544  _checkOwner() */\n      tag_95\n        /* \"@openzeppelin/contracts/access/Ownable.sol\":1531:1542  _checkOwner */\n      tag_76\n        /* \"@openzeppelin/contracts/access/Ownable.sol\":1531:1544  _checkOwner() */\n      jump\t// in\n    tag_95:\n        /* \"@openzeppelin/contracts/access/Ownable.sol\":2647:2648  0 */\n      0x00\n        /* \"@openzeppelin/contracts/access/Ownable.sol\":2627:2649  newOwner == address(0) */\n      0xffffffffffffffffffffffffffffffffffffffff\n      and\n        /* \"@openzeppelin/contracts/access/Ownable.sol\":2627:2635  newOwner */\n      dup2\n        /* \"@openzeppelin/contracts/access/Ownable.sol\":2627:2649  newOwner == address(0) */\n      0xffffffffffffffffffffffffffffffffffffffff\n      and\n      sub\n        /* \"@openzeppelin/contracts/access/Ownable.sol\":2623:2714  if (newOwner == address(0)) {... */\n      tag_97\n      jumpi\n        /* \"@openzeppelin/contracts/access/Ownable.sol\":2700:2701  0 */\n      0x00\n        /* \"@openzeppelin/contracts/access/Ownable.sol\":2672:2703  OwnableInvalidOwner(address(0)) */\n      mload(0x40)\n      0x1e4fbdf700000000000000000000000000000000000000000000000000000000\n      dup2\n      mstore\n      0x04\n      add\n      tag_98\n      swap2\n      swap1\n      tag_39\n      jump\t// in\n    tag_98:\n      mload(0x40)\n      dup1\n      swap2\n      sub\n      swap1\n      revert\n        /* \"@openzeppelin/contracts/access/Ownable.sol\":2623:2714  if (newOwner == address(0)) {... */\n    tag_97:\n        /* \"@openzeppelin/contracts/access/Ownable.sol\":2723:2751  _transferOwnership(newOwner) */\n      tag_99\n        /* \"@openzeppelin/contracts/access/Ownable.sol\":2742:2750  newOwner */\n      dup2\n        /* \"@openzeppelin/contracts/access/Ownable.sol\":2723:2741  _transferOwnership */\n      tag_79\n        /* \"@openzeppelin/contracts/access/Ownable.sol\":2723:2751  _transferOwnership(newOwner) */\n      jump\t// in\n    tag_99:\n        /* \"@openzeppelin/contracts/access/Ownable.sol\":2543:2758  function transferOwnership(address newOwner) public virtual onlyOwner {... */\n      pop\n      jump\t// out\n        /* \"contracts/DistributeFunding.sol\":187:207  MyToken public token */\n    tag_48:\n      0x01\n      0x00\n      swap1\n      sload\n      swap1\n      0x0100\n      exp\n      swap1\n      div\n      0xffffffffffffffffffffffffffffffffffffffff\n      and\n      dup2\n      jump\t// out\n        /* \"@openzeppelin/contracts/access/Ownable.sol\":1796:1958  function _checkOwner() internal view virtual {... */\n    tag_76:\n        /* \"@openzeppelin/contracts/access/Ownable.sol\":1866:1878  _msgSender() */\n      tag_101\n        /* \"@openzeppelin/contracts/access/Ownable.sol\":1866:1876  _msgSender */\n      tag_102\n        /* \"@openzeppelin/contracts/access/Ownable.sol\":1866:1878  _msgSender() */\n      jump\t// in\n    tag_101:\n        /* \"@openzeppelin/contracts/access/Ownable.sol\":1855:1878  owner() != _msgSender() */\n      0xffffffffffffffffffffffffffffffffffffffff\n      and\n        /* \"@openzeppelin/contracts/access/Ownable.sol\":1855:1862  owner() */\n      tag_103\n        /* \"@openzeppelin/contracts/access/Ownable.sol\":1855:1860  owner */\n      tag_37\n        /* \"@openzeppelin/contracts/access/Ownable.sol\":1855:1862  owner() */\n      jump\t// in\n    tag_103:\n        /* \"@openzeppelin/contracts/access/Ownable.sol\":1855:1878  owner() != _msgSender() */\n      0xffffffffffffffffffffffffffffffffffffffff\n      and\n      eq\n        /* \"@openzeppelin/contracts/access/Ownable.sol\":1851:1952  if (owner() != _msgSender()) {... */\n      tag_104\n      jumpi\n        /* \"@openzeppelin/contracts/access/Ownable.sol\":1928:1940  _msgSender() */\n      tag_105\n        /* \"@openzeppelin/contracts/access/Ownable.sol\":1928:1938  _msgSender */\n      tag_102\n        /* \"@openzeppelin/contracts/access/Ownable.sol\":1928:1940  _msgSender() */\n      jump\t// in\n    tag_105:\n        /* \"@openzeppelin/contracts/access/Ownable.sol\":1901:1941  OwnableUnauthorizedAccount(_msgSender()) */\n      mload(0x40)\n      0x118cdaa700000000000000000000000000000000000000000000000000000000\n      dup2\n      mstore\n      0x04\n      add\n      tag_106\n      swap2\n      swap1\n      tag_39\n      jump\t// in\n    tag_106:\n      mload(0x40)\n      dup1\n      swap2\n      sub\n      swap1\n      revert\n        /* \"@openzeppelin/contracts/access/Ownable.sol\":1851:1952  if (owner() != _msgSender()) {... */\n    tag_104:\n        /* \"@openzeppelin/contracts/access/Ownable.sol\":1796:1958  function _checkOwner() internal view virtual {... */\n      jump\t// out\n        /* \"@openzeppelin/contracts/access/Ownable.sol\":2912:3099  function _transferOwnership(address newOwner) internal virtual {... */\n    tag_79:\n        /* \"@openzeppelin/contracts/access/Ownable.sol\":2985:3001  address oldOwner */\n      0x00\n        /* \"@openzeppelin/contracts/access/Ownable.sol\":3004:3010  _owner */\n      0x00\n      0x00\n      swap1\n      sload\n      swap1\n      0x0100\n      exp\n      swap1\n      div\n      0xffffffffffffffffffffffffffffffffffffffff\n      and\n        /* \"@openzeppelin/contracts/access/Ownable.sol\":2985:3010  address oldOwner = _owner */\n      swap1\n      pop\n        /* \"@openzeppelin/contracts/access/Ownable.sol\":3029:3037  newOwner */\n      dup2\n        /* \"@openzeppelin/contracts/access/Ownable.sol\":3020:3026  _owner */\n      0x00\n      0x00\n        /* \"@openzeppelin/contracts/access/Ownable.sol\":3020:3037  _owner = newOwner */\n      0x0100\n      exp\n      dup2\n      sload\n      dup2\n      0xffffffffffffffffffffffffffffffffffffffff\n      mul\n      not\n      and\n      swap1\n      dup4\n      0xffffffffffffffffffffffffffffffffffffffff\n      and\n      mul\n      or\n      swap1\n      sstore\n      pop\n        /* \"@openzeppelin/contracts/access/Ownable.sol\":3083:3091  newOwner */\n      dup2\n        /* \"@openzeppelin/contracts/access/Ownable.sol\":3052:3092  OwnershipTransferred(oldOwner, newOwner) */\n      0xffffffffffffffffffffffffffffffffffffffff\n      and\n        /* \"@openzeppelin/contracts/access/Ownable.sol\":3073:3081  oldOwner */\n      dup2\n        /* \"@openzeppelin/contracts/access/Ownable.sol\":3052:3092  OwnershipTransferred(oldOwner, newOwner) */\n      0xffffffffffffffffffffffffffffffffffffffff\n      and\n      0x8be0079c531659141344cd1fd0a4f28419497f9722a3daafe3b4186f6b6457e0\n      mload(0x40)\n      mload(0x40)\n      dup1\n      swap2\n      sub\n      swap1\n      log3\n        /* \"@openzeppelin/contracts/access/Ownable.sol\":2975:3099  {... */\n      pop\n        /* \"@openzeppelin/contracts/access/Ownable.sol\":2912:3099  function _transferOwnership(address newOwner) internal virtual {... */\n      pop\n      jump\t// out\n        /* \"@openzeppelin/contracts/utils/Context.sol\":656:752  function _msgSender() internal view virtual returns (address) {... */\n    tag_102:\n        /* \"@openzeppelin/contracts/utils/Context.sol\":709:716  address */\n      0x00\n        /* \"@openzeppelin/contracts/utils/Context.sol\":735:745  msg.sender */\n      caller\n        /* \"@openzeppelin/contracts/utils/Context.sol\":728:745  return msg.sender */\n      swap1\n      pop\n        /* \"@openzeppelin/contracts/utils/Context.sol\":656:752  function _msgSender() internal view virtual returns (address) {... */\n      swap1\n      jump\t// out\n        /* \"#utility.yul\":7:97   */\n    tag_109:\n        /* \"#utility.yul\":41:48   */\n      0x00\n        /* \"#utility.yul\":84:89   */\n      dup2\n        /* \"#utility.yul\":77:90   */\n      iszero\n        /* \"#utility.yul\":70:91   */\n      iszero\n        /* \"#utility.yul\":59:91   */\n      swap1\n      pop\n        /* \"#utility.yul\":7:97   */\n      swap2\n      swap1\n      pop\n      jump\t// out\n        /* \"#utility.yul\":103:212   */\n    tag_110:\n        /* \"#utility.yul\":184:205   */\n      tag_148\n        /* \"#utility.yul\":199:204   */\n      dup2\n        /* \"#utility.yul\":184:205   */\n      tag_109\n      jump\t// in\n    tag_148:\n        /* \"#utility.yul\":179:182   */\n      dup3\n        /* \"#utility.yul\":172:206   */\n      mstore\n        /* \"#utility.yul\":103:212   */\n      pop\n      pop\n      jump\t// out\n        /* \"#utility.yul\":218:428   */\n    tag_17:\n        /* \"#utility.yul\":305:309   */\n      0x00\n        /* \"#utility.yul\":343:345   */\n      0x20\n        /* \"#utility.yul\":332:341   */\n      dup3\n        /* \"#utility.yul\":328:346   */\n      add\n        /* \"#utility.yul\":320:346   */\n      swap1\n      pop\n        /* \"#utility.yul\":356:421   */\n      tag_150\n        /* \"#utility.yul\":418:419   */\n      0x00\n        /* \"#utility.yul\":407:416   */\n      dup4\n        /* \"#utility.yul\":403:420   */\n      add\n        /* \"#utility.yul\":394:400   */\n      dup5\n        /* \"#utility.yul\":356:421   */\n      tag_110\n      jump\t// in\n    tag_150:\n        /* \"#utility.yul\":218:428   */\n      swap3\n      swap2\n      pop\n      pop\n      jump\t// out\n        /* \"#utility.yul\":515:632   */\n    tag_112:\n        /* \"#utility.yul\":624:625   */\n      0x00\n        /* \"#utility.yul\":621:622   */\n      0x00\n        /* \"#utility.yul\":614:626   */\n      revert\n        /* \"#utility.yul\":761:887   */\n    tag_114:\n        /* \"#utility.yul\":798:805   */\n      0x00\n        /* \"#utility.yul\":838:880   */\n      0xffffffffffffffffffffffffffffffffffffffff\n        /* \"#utility.yul\":831:836   */\n      dup3\n        /* \"#utility.yul\":827:881   */\n      and\n        /* \"#utility.yul\":816:881   */\n      swap1\n      pop\n        /* \"#utility.yul\":761:887   */\n      swap2\n      swap1\n      pop\n      jump\t// out\n        /* \"#utility.yul\":893:989   */\n    tag_115:\n        /* \"#utility.yul\":930:937   */\n      0x00\n        /* \"#utility.yul\":959:983   */\n      tag_156\n        /* \"#utility.yul\":977:982   */\n      dup3\n        /* \"#utility.yul\":959:983   */\n      tag_114\n      jump\t// in\n    tag_156:\n        /* \"#utility.yul\":948:983   */\n      swap1\n      pop\n        /* \"#utility.yul\":893:989   */\n      swap2\n      swap1\n      pop\n      jump\t// out\n        /* \"#utility.yul\":995:1117   */\n    tag_116:\n        /* \"#utility.yul\":1068:1092   */\n      tag_158\n        /* \"#utility.yul\":1086:1091   */\n      dup2\n        /* \"#utility.yul\":1068:1092   */\n      tag_115\n      jump\t// in\n    tag_158:\n        /* \"#utility.yul\":1061:1066   */\n      dup2\n        /* \"#utility.yul\":1058:1093   */\n      eq\n        /* \"#utility.yul\":1048:1111   */\n      tag_159\n      jumpi\n        /* \"#utility.yul\":1107:1108   */\n      0x00\n        /* \"#utility.yul\":1104:1105   */\n      0x00\n        /* \"#utility.yul\":1097:1109   */\n      revert\n        /* \"#utility.yul\":1048:1111   */\n    tag_159:\n        /* \"#utility.yul\":995:1117   */\n      pop\n      jump\t// out\n        /* \"#utility.yul\":1123:1262   */\n    tag_117:\n        /* \"#utility.yul\":1169:1174   */\n      0x00\n        /* \"#utility.yul\":1207:1213   */\n      dup2\n        /* \"#utility.yul\":1194:1214   */\n      calldataload\n        /* \"#utility.yul\":1185:1214   */\n      swap1\n      pop\n        /* \"#utility.yul\":1223:1256   */\n      tag_161\n        /* \"#utility.yul\":1250:1255   */\n      dup2\n        /* \"#utility.yul\":1223:1256   */\n      tag_116\n      jump\t// in\n    tag_161:\n        /* \"#utility.yul\":1123:1262   */\n      swap3\n      swap2\n      pop\n      pop\n      jump\t// out\n        /* \"#utility.yul\":1268:1597   */\n    tag_22:\n        /* \"#utility.yul\":1327:1333   */\n      0x00\n        /* \"#utility.yul\":1376:1378   */\n      0x20\n        /* \"#utility.yul\":1364:1373   */\n      dup3\n        /* \"#utility.yul\":1355:1362   */\n      dup5\n        /* \"#utility.yul\":1351:1374   */\n      sub\n        /* \"#utility.yul\":1347:1379   */\n      slt\n        /* \"#utility.yul\":1344:1463   */\n      iszero\n      tag_163\n      jumpi\n        /* \"#utility.yul\":1382:1461   */\n      tag_164\n      tag_112\n      jump\t// in\n    tag_164:\n        /* \"#utility.yul\":1344:1463   */\n    tag_163:\n        /* \"#utility.yul\":1502:1503   */\n      0x00\n        /* \"#utility.yul\":1527:1580   */\n      tag_165\n        /* \"#utility.yul\":1572:1579   */\n      dup5\n        /* \"#utility.yul\":1563:1569   */\n      dup3\n        /* \"#utility.yul\":1552:1561   */\n      dup6\n        /* \"#utility.yul\":1548:1570   */\n      add\n        /* \"#utility.yul\":1527:1580   */\n      tag_117\n      jump\t// in\n    tag_165:\n        /* \"#utility.yul\":1517:1580   */\n      swap2\n      pop\n        /* \"#utility.yul\":1473:1590   */\n      pop\n        /* \"#utility.yul\":1268:1597   */\n      swap3\n      swap2\n      pop\n      pop\n      jump\t// out\n        /* \"#utility.yul\":1603:1680   */\n    tag_118:\n        /* \"#utility.yul\":1640:1647   */\n      0x00\n        /* \"#utility.yul\":1669:1674   */\n      dup2\n        /* \"#utility.yul\":1658:1674   */\n      swap1\n      pop\n        /* \"#utility.yul\":1603:1680   */\n      swap2\n      swap1\n      pop\n      jump\t// out\n        /* \"#utility.yul\":1686:1804   */\n    tag_119:\n        /* \"#utility.yul\":1773:1797   */\n      tag_168\n        /* \"#utility.yul\":1791:1796   */\n      dup2\n        /* \"#utility.yul\":1773:1797   */\n      tag_118\n      jump\t// in\n    tag_168:\n        /* \"#utility.yul\":1768:1771   */\n      dup3\n        /* \"#utility.yul\":1761:1798   */\n      mstore\n        /* \"#utility.yul\":1686:1804   */\n      pop\n      pop\n      jump\t// out\n        /* \"#utility.yul\":1810:2130   */\n    tag_25:\n        /* \"#utility.yul\":1925:1929   */\n      0x00\n        /* \"#utility.yul\":1963:1965   */\n      0x40\n        /* \"#utility.yul\":1952:1961   */\n      dup3\n        /* \"#utility.yul\":1948:1966   */\n      add\n        /* \"#utility.yul\":1940:1966   */\n      swap1\n      pop\n        /* \"#utility.yul\":1976:2047   */\n      tag_170\n        /* \"#utility.yul\":2044:2045   */\n      0x00\n        /* \"#utility.yul\":2033:2042   */\n      dup4\n        /* \"#utility.yul\":2029:2046   */\n      add\n        /* \"#utility.yul\":2020:2026   */\n      dup6\n        /* \"#utility.yul\":1976:2047   */\n      tag_119\n      jump\t// in\n    tag_170:\n        /* \"#utility.yul\":2057:2123   */\n      tag_171\n        /* \"#utility.yul\":2119:2121   */\n      0x20\n        /* \"#utility.yul\":2108:2117   */\n      dup4\n        /* \"#utility.yul\":2104:2122   */\n      add\n        /* \"#utility.yul\":2095:2101   */\n      dup5\n        /* \"#utility.yul\":2057:2123   */\n      tag_110\n      jump\t// in\n    tag_171:\n        /* \"#utility.yul\":1810:2130   */\n      swap4\n      swap3\n      pop\n      pop\n      pop\n      jump\t// out\n        /* \"#utility.yul\":2136:2258   */\n    tag_120:\n        /* \"#utility.yul\":2209:2233   */\n      tag_173\n        /* \"#utility.yul\":2227:2232   */\n      dup2\n        /* \"#utility.yul\":2209:2233   */\n      tag_118\n      jump\t// in\n    tag_173:\n        /* \"#utility.yul\":2202:2207   */\n      dup2\n        /* \"#utility.yul\":2199:2234   */\n      eq\n        /* \"#utility.yul\":2189:2252   */\n      tag_174\n      jumpi\n        /* \"#utility.yul\":2248:2249   */\n      0x00\n        /* \"#utility.yul\":2245:2246   */\n      0x00\n        /* \"#utility.yul\":2238:2250   */\n      revert\n        /* \"#utility.yul\":2189:2252   */\n    tag_174:\n        /* \"#utility.yul\":2136:2258   */\n      pop\n      jump\t// out\n        /* \"#utility.yul\":2264:2403   */\n    tag_121:\n        /* \"#utility.yul\":2310:2315   */\n      0x00\n        /* \"#utility.yul\":2348:2354   */\n      dup2\n        /* \"#utility.yul\":2335:2355   */\n      calldataload\n        /* \"#utility.yul\":2326:2355   */\n      swap1\n      pop\n        /* \"#utility.yul\":2364:2397   */\n      tag_176\n        /* \"#utility.yul\":2391:2396   */\n      dup2\n        /* \"#utility.yul\":2364:2397   */\n      tag_120\n      jump\t// in\n    tag_176:\n        /* \"#utility.yul\":2264:2403   */\n      swap3\n      swap2\n      pop\n      pop\n      jump\t// out\n        /* \"#utility.yul\":2409:2883   */\n    tag_30:\n        /* \"#utility.yul\":2477:2483   */\n      0x00\n        /* \"#utility.yul\":2485:2491   */\n      0x00\n        /* \"#utility.yul\":2534:2536   */\n      0x40\n        /* \"#utility.yul\":2522:2531   */\n      dup4\n        /* \"#utility.yul\":2513:2520   */\n      dup6\n        /* \"#utility.yul\":2509:2532   */\n      sub\n        /* \"#utility.yul\":2505:2537   */\n      slt\n        /* \"#utility.yul\":2502:2621   */\n      iszero\n      tag_178\n      jumpi\n        /* \"#utility.yul\":2540:2619   */\n      tag_179\n      tag_112\n      jump\t// in\n    tag_179:\n        /* \"#utility.yul\":2502:2621   */\n    tag_178:\n        /* \"#utility.yul\":2660:2661   */\n      0x00\n        /* \"#utility.yul\":2685:2738   */\n      tag_180\n        /* \"#utility.yul\":2730:2737   */\n      dup6\n        /* \"#utility.yul\":2721:2727   */\n      dup3\n        /* \"#utility.yul\":2710:2719   */\n      dup7\n        /* \"#utility.yul\":2706:2728   */\n      add\n        /* \"#utility.yul\":2685:2738   */\n      tag_117\n      jump\t// in\n    tag_180:\n        /* \"#utility.yul\":2675:2738   */\n      swap3\n      pop\n        /* \"#utility.yul\":2631:2748   */\n      pop\n        /* \"#utility.yul\":2787:2789   */\n      0x20\n        /* \"#utility.yul\":2813:2866   */\n      tag_181\n        /* \"#utility.yul\":2858:2865   */\n      dup6\n        /* \"#utility.yul\":2849:2855   */\n      dup3\n        /* \"#utility.yul\":2838:2847   */\n      dup7\n        /* \"#utility.yul\":2834:2856   */\n      add\n        /* \"#utility.yul\":2813:2866   */\n      tag_121\n      jump\t// in\n    tag_181:\n        /* \"#utility.yul\":2803:2866   */\n      swap2\n      pop\n        /* \"#utility.yul\":2758:2876   */\n      pop\n        /* \"#utility.yul\":2409:2883   */\n      swap3\n      pop\n      swap3\n      swap1\n      pop\n      jump\t// out\n        /* \"#utility.yul\":2889:3218   */\n    tag_34:\n        /* \"#utility.yul\":2948:2954   */\n      0x00\n        /* \"#utility.yul\":2997:2999   */\n      0x20\n        /* \"#utility.yul\":2985:2994   */\n      dup3\n        /* \"#utility.yul\":2976:2983   */\n      dup5\n        /* \"#utility.yul\":2972:2995   */\n      sub\n        /* \"#utility.yul\":2968:3000   */\n      slt\n        /* \"#utility.yul\":2965:3084   */\n      iszero\n      tag_183\n      jumpi\n        /* \"#utility.yul\":3003:3082   */\n      tag_184\n      tag_112\n      jump\t// in\n    tag_184:\n        /* \"#utility.yul\":2965:3084   */\n    tag_183:\n        /* \"#utility.yul\":3123:3124   */\n      0x00\n        /* \"#utility.yul\":3148:3201   */\n      tag_185\n        /* \"#utility.yul\":3193:3200   */\n      dup5\n        /* \"#utility.yul\":3184:3190   */\n      dup3\n        /* \"#utility.yul\":3173:3182   */\n      dup6\n        /* \"#utility.yul\":3169:3191   */\n      add\n        /* \"#utility.yul\":3148:3201   */\n      tag_121\n      jump\t// in\n    tag_185:\n        /* \"#utility.yul\":3138:3201   */\n      swap2\n      pop\n        /* \"#utility.yul\":3094:3211   */\n      pop\n        /* \"#utility.yul\":2889:3218   */\n      swap3\n      swap2\n      pop\n      pop\n      jump\t// out\n        /* \"#utility.yul\":3224:3342   */\n    tag_122:\n        /* \"#utility.yul\":3311:3335   */\n      tag_187\n        /* \"#utility.yul\":3329:3334   */\n      dup2\n        /* \"#utility.yul\":3311:3335   */\n      tag_115\n      jump\t// in\n    tag_187:\n        /* \"#utility.yul\":3306:3309   */\n      dup3\n        /* \"#utility.yul\":3299:3336   */\n      mstore\n        /* \"#utility.yul\":3224:3342   */\n      pop\n      pop\n      jump\t// out\n        /* \"#utility.yul\":3348:3570   */\n    tag_39:\n        /* \"#utility.yul\":3441:3445   */\n      0x00\n        /* \"#utility.yul\":3479:3481   */\n      0x20\n        /* \"#utility.yul\":3468:3477   */\n      dup3\n        /* \"#utility.yul\":3464:3482   */\n      add\n        /* \"#utility.yul\":3456:3482   */\n      swap1\n      pop\n        /* \"#utility.yul\":3492:3563   */\n      tag_189\n        /* \"#utility.yul\":3560:3561   */\n      0x00\n        /* \"#utility.yul\":3549:3558   */\n      dup4\n        /* \"#utility.yul\":3545:3562   */\n      add\n        /* \"#utility.yul\":3536:3542   */\n      dup5\n        /* \"#utility.yul\":3492:3563   */\n      tag_122\n      jump\t// in\n    tag_189:\n        /* \"#utility.yul\":3348:3570   */\n      swap3\n      swap2\n      pop\n      pop\n      jump\t// out\n        /* \"#utility.yul\":3576:3798   */\n    tag_43:\n        /* \"#utility.yul\":3669:3673   */\n      0x00\n        /* \"#utility.yul\":3707:3709   */\n      0x20\n        /* \"#utility.yul\":3696:3705   */\n      dup3\n        /* \"#utility.yul\":3692:3710   */\n      add\n        /* \"#utility.yul\":3684:3710   */\n      swap1\n      pop\n        /* \"#utility.yul\":3720:3791   */\n      tag_191\n        /* \"#utility.yul\":3788:3789   */\n      0x00\n        /* \"#utility.yul\":3777:3786   */\n      dup4\n        /* \"#utility.yul\":3773:3790   */\n      add\n        /* \"#utility.yul\":3764:3770   */\n      dup5\n        /* \"#utility.yul\":3720:3791   */\n      tag_119\n      jump\t// in\n    tag_191:\n        /* \"#utility.yul\":3576:3798   */\n      swap3\n      swap2\n      pop\n      pop\n      jump\t// out\n        /* \"#utility.yul\":3804:3864   */\n    tag_123:\n        /* \"#utility.yul\":3832:3835   */\n      0x00\n        /* \"#utility.yul\":3853:3858   */\n      dup2\n        /* \"#utility.yul\":3846:3858   */\n      swap1\n      pop\n        /* \"#utility.yul\":3804:3864   */\n      swap2\n      swap1\n      pop\n      jump\t// out\n        /* \"#utility.yul\":3870:4012   */\n    tag_124:\n        /* \"#utility.yul\":3920:3929   */\n      0x00\n        /* \"#utility.yul\":3953:4006   */\n      tag_194\n        /* \"#utility.yul\":3971:4005   */\n      tag_195\n        /* \"#utility.yul\":3980:4004   */\n      tag_196\n        /* \"#utility.yul\":3998:4003   */\n      dup5\n        /* \"#utility.yul\":3980:4004   */\n      tag_114\n      jump\t// in\n    tag_196:\n        /* \"#utility.yul\":3971:4005   */\n      tag_123\n      jump\t// in\n    tag_195:\n        /* \"#utility.yul\":3953:4006   */\n      tag_114\n      jump\t// in\n    tag_194:\n        /* \"#utility.yul\":3940:4006   */\n      swap1\n      pop\n        /* \"#utility.yul\":3870:4012   */\n      swap2\n      swap1\n      pop\n      jump\t// out\n        /* \"#utility.yul\":4018:4144   */\n    tag_125:\n        /* \"#utility.yul\":4068:4077   */\n      0x00\n        /* \"#utility.yul\":4101:4138   */\n      tag_198\n        /* \"#utility.yul\":4132:4137   */\n      dup3\n        /* \"#utility.yul\":4101:4138   */\n      tag_124\n      jump\t// in\n    tag_198:\n        /* \"#utility.yul\":4088:4138   */\n      swap1\n      pop\n        /* \"#utility.yul\":4018:4144   */\n      swap2\n      swap1\n      pop\n      jump\t// out\n        /* \"#utility.yul\":4150:4292   */\n    tag_126:\n        /* \"#utility.yul\":4216:4225   */\n      0x00\n        /* \"#utility.yul\":4249:4286   */\n      tag_200\n        /* \"#utility.yul\":4280:4285   */\n      dup3\n        /* \"#utility.yul\":4249:4286   */\n      tag_125\n      jump\t// in\n    tag_200:\n        /* \"#utility.yul\":4236:4286   */\n      swap1\n      pop\n        /* \"#utility.yul\":4150:4292   */\n      swap2\n      swap1\n      pop\n      jump\t// out\n        /* \"#utility.yul\":4298:4461   */\n    tag_127:\n        /* \"#utility.yul\":4401:4454   */\n      tag_202\n        /* \"#utility.yul\":4448:4453   */\n      dup2\n        /* \"#utility.yul\":4401:4454   */\n      tag_126\n      jump\t// in\n    tag_202:\n        /* \"#utility.yul\":4396:4399   */\n      dup3\n        /* \"#utility.yul\":4389:4455   */\n      mstore\n        /* \"#utility.yul\":4298:4461   */\n      pop\n      pop\n      jump\t// out\n        /* \"#utility.yul\":4467:4721   */\n    tag_50:\n        /* \"#utility.yul\":4576:4580   */\n      0x00\n        /* \"#utility.yul\":4614:4616   */\n      0x20\n        /* \"#utility.yul\":4603:4612   */\n      dup3\n        /* \"#utility.yul\":4599:4617   */\n      add\n        /* \"#utility.yul\":4591:4617   */\n      swap1\n      pop\n        /* \"#utility.yul\":4627:4714   */\n      tag_204\n        /* \"#utility.yul\":4711:4712   */\n      0x00\n        /* \"#utility.yul\":4700:4709   */\n      dup4\n        /* \"#utility.yul\":4696:4713   */\n      add\n        /* \"#utility.yul\":4687:4693   */\n      dup5\n        /* \"#utility.yul\":4627:4714   */\n      tag_127\n      jump\t// in\n    tag_204:\n        /* \"#utility.yul\":4467:4721   */\n      swap3\n      swap2\n      pop\n      pop\n      jump\t// out\n        /* \"#utility.yul\":4727:4896   */\n    tag_128:\n        /* \"#utility.yul\":4811:4822   */\n      0x00\n        /* \"#utility.yul\":4845:4851   */\n      dup3\n        /* \"#utility.yul\":4840:4843   */\n      dup3\n        /* \"#utility.yul\":4833:4852   */\n      mstore\n        /* \"#utility.yul\":4885:4889   */\n      0x20\n        /* \"#utility.yul\":4880:4883   */\n      dup3\n        /* \"#utility.yul\":4876:4890   */\n      add\n        /* \"#utility.yul\":4861:4890   */\n      swap1\n      pop\n        /* \"#utility.yul\":4727:4896   */\n      swap3\n      swap2\n      pop\n      pop\n      jump\t// out\n        /* \"#utility.yul\":4902:5084   */\n    tag_129:\n        /* \"#utility.yul\":5042:5076   */\n      0x466f6e647572696c65206e7520617520666f737420696e636120766972617465\n        /* \"#utility.yul\":5038:5039   */\n      0x00\n        /* \"#utility.yul\":5030:5036   */\n      dup3\n        /* \"#utility.yul\":5026:5040   */\n      add\n        /* \"#utility.yul\":5019:5077   */\n      mstore\n        /* \"#utility.yul\":4902:5084   */\n      pop\n      jump\t// out\n        /* \"#utility.yul\":5090:5456   */\n    tag_130:\n        /* \"#utility.yul\":5232:5235   */\n      0x00\n        /* \"#utility.yul\":5253:5320   */\n      tag_208\n        /* \"#utility.yul\":5317:5319   */\n      0x20\n        /* \"#utility.yul\":5312:5315   */\n      dup4\n        /* \"#utility.yul\":5253:5320   */\n      tag_128\n      jump\t// in\n    tag_208:\n        /* \"#utility.yul\":5246:5320   */\n      swap2\n      pop\n        /* \"#utility.yul\":5329:5422   */\n      tag_209\n        /* \"#utility.yul\":5418:5421   */\n      dup3\n        /* \"#utility.yul\":5329:5422   */\n      tag_129\n      jump\t// in\n    tag_209:\n        /* \"#utility.yul\":5447:5449   */\n      0x20\n        /* \"#utility.yul\":5442:5445   */\n      dup3\n        /* \"#utility.yul\":5438:5450   */\n      add\n        /* \"#utility.yul\":5431:5450   */\n      swap1\n      pop\n        /* \"#utility.yul\":5090:5456   */\n      swap2\n      swap1\n      pop\n      jump\t// out\n        /* \"#utility.yul\":5462:5881   */\n    tag_54:\n        /* \"#utility.yul\":5628:5632   */\n      0x00\n        /* \"#utility.yul\":5666:5668   */\n      0x20\n        /* \"#utility.yul\":5655:5664   */\n      dup3\n        /* \"#utility.yul\":5651:5669   */\n      add\n        /* \"#utility.yul\":5643:5669   */\n      swap1\n      pop\n        /* \"#utility.yul\":5715:5724   */\n      dup2\n        /* \"#utility.yul\":5709:5713   */\n      dup2\n        /* \"#utility.yul\":5705:5725   */\n      sub\n        /* \"#utility.yul\":5701:5702   */\n      0x00\n        /* \"#utility.yul\":5690:5699   */\n      dup4\n        /* \"#utility.yul\":5686:5703   */\n      add\n        /* \"#utility.yul\":5679:5726   */\n      mstore\n        /* \"#utility.yul\":5743:5874   */\n      tag_211\n        /* \"#utility.yul\":5869:5873   */\n      dup2\n        /* \"#utility.yul\":5743:5874   */\n      tag_130\n      jump\t// in\n    tag_211:\n        /* \"#utility.yul\":5735:5874   */\n      swap1\n      pop\n        /* \"#utility.yul\":5462:5881   */\n      swap2\n      swap1\n      pop\n      jump\t// out\n        /* \"#utility.yul\":5887:6110   */\n    tag_131:\n        /* \"#utility.yul\":6027:6061   */\n      0x4e752073756e7465746920696e7265676973747261742063612062656e656669\n        /* \"#utility.yul\":6023:6024   */\n      0x00\n        /* \"#utility.yul\":6015:6021   */\n      dup3\n        /* \"#utility.yul\":6011:6025   */\n      add\n        /* \"#utility.yul\":6004:6062   */\n      mstore\n        /* \"#utility.yul\":6096:6102   */\n      0x6369617200000000000000000000000000000000000000000000000000000000\n        /* \"#utility.yul\":6091:6093   */\n      0x20\n        /* \"#utility.yul\":6083:6089   */\n      dup3\n        /* \"#utility.yul\":6079:6094   */\n      add\n        /* \"#utility.yul\":6072:6103   */\n      mstore\n        /* \"#utility.yul\":5887:6110   */\n      pop\n      jump\t// out\n        /* \"#utility.yul\":6116:6482   */\n    tag_132:\n        /* \"#utility.yul\":6258:6261   */\n      0x00\n        /* \"#utility.yul\":6279:6346   */\n      tag_214\n        /* \"#utility.yul\":6343:6345   */\n      0x24\n        /* \"#utility.yul\":6338:6341   */\n      dup4\n        /* \"#utility.yul\":6279:6346   */\n      tag_128\n      jump\t// in\n    tag_214:\n        /* \"#utility.yul\":6272:6346   */\n      swap2\n      pop\n        /* \"#utility.yul\":6355:6448   */\n      tag_215\n        /* \"#utility.yul\":6444:6447   */\n      dup3\n        /* \"#utility.yul\":6355:6448   */\n      tag_131\n      jump\t// in\n    tag_215:\n        /* \"#utility.yul\":6473:6475   */\n      0x40\n        /* \"#utility.yul\":6468:6471   */\n      dup3\n        /* \"#utility.yul\":6464:6476   */\n      add\n        /* \"#utility.yul\":6457:6476   */\n      swap1\n      pop\n        /* \"#utility.yul\":6116:6482   */\n      swap2\n      swap1\n      pop\n      jump\t// out\n        /* \"#utility.yul\":6488:6907   */\n    tag_57:\n        /* \"#utility.yul\":6654:6658   */\n      0x00\n        /* \"#utility.yul\":6692:6694   */\n      0x20\n        /* \"#utility.yul\":6681:6690   */\n      dup3\n        /* \"#utility.yul\":6677:6695   */\n      add\n        /* \"#utility.yul\":6669:6695   */\n      swap1\n      pop\n        /* \"#utility.yul\":6741:6750   */\n      dup2\n        /* \"#utility.yul\":6735:6739   */\n      dup2\n        /* \"#utility.yul\":6731:6751   */\n      sub\n        /* \"#utility.yul\":6727:6728   */\n      0x00\n        /* \"#utility.yul\":6716:6725   */\n      dup4\n        /* \"#utility.yul\":6712:6729   */\n      add\n        /* \"#utility.yul\":6705:6752   */\n      mstore\n        /* \"#utility.yul\":6769:6900   */\n      tag_217\n        /* \"#utility.yul\":6895:6899   */\n      dup2\n        /* \"#utility.yul\":6769:6900   */\n      tag_132\n      jump\t// in\n    tag_217:\n        /* \"#utility.yul\":6761:6900   */\n      swap1\n      pop\n        /* \"#utility.yul\":6488:6907   */\n      swap2\n      swap1\n      pop\n      jump\t// out\n        /* \"#utility.yul\":6913:7086   */\n    tag_133:\n        /* \"#utility.yul\":7053:7078   */\n      0x417469207265747261732064656a612076656e6974756c000000000000000000\n        /* \"#utility.yul\":7049:7050   */\n      0x00\n        /* \"#utility.yul\":7041:7047   */\n      dup3\n        /* \"#utility.yul\":7037:7051   */\n      add\n        /* \"#utility.yul\":7030:7079   */\n      mstore\n        /* \"#utility.yul\":6913:7086   */\n      pop\n      jump\t// out\n        /* \"#utility.yul\":7092:7458   */\n    tag_134:\n        /* \"#utility.yul\":7234:7237   */\n      0x00\n        /* \"#utility.yul\":7255:7322   */\n      tag_220\n        /* \"#utility.yul\":7319:7321   */\n      0x17\n        /* \"#utility.yul\":7314:7317   */\n      dup4\n        /* \"#utility.yul\":7255:7322   */\n      tag_128\n      jump\t// in\n    tag_220:\n        /* \"#utility.yul\":7248:7322   */\n      swap2\n      pop\n        /* \"#utility.yul\":7331:7424   */\n      tag_221\n        /* \"#utility.yul\":7420:7423   */\n      dup3\n        /* \"#utility.yul\":7331:7424   */\n      tag_133\n      jump\t// in\n    tag_221:\n        /* \"#utility.yul\":7449:7451   */\n      0x20\n        /* \"#utility.yul\":7444:7447   */\n      dup3\n        /* \"#utility.yul\":7440:7452   */\n      add\n        /* \"#utility.yul\":7433:7452   */\n      swap1\n      pop\n        /* \"#utility.yul\":7092:7458   */\n      swap2\n      swap1\n      pop\n      jump\t// out\n        /* \"#utility.yul\":7464:7883   */\n    tag_60:\n        /* \"#utility.yul\":7630:7634   */\n      0x00\n        /* \"#utility.yul\":7668:7670   */\n      0x20\n        /* \"#utility.yul\":7657:7666   */\n      dup3\n        /* \"#utility.yul\":7653:7671   */\n      add\n        /* \"#utility.yul\":7645:7671   */\n      swap1\n      pop\n        /* \"#utility.yul\":7717:7726   */\n      dup2\n        /* \"#utility.yul\":7711:7715   */\n      dup2\n        /* \"#utility.yul\":7707:7727   */\n      sub\n        /* \"#utility.yul\":7703:7704   */\n      0x00\n        /* \"#utility.yul\":7692:7701   */\n      dup4\n        /* \"#utility.yul\":7688:7705   */\n      add\n        /* \"#utility.yul\":7681:7728   */\n      mstore\n        /* \"#utility.yul\":7745:7876   */\n      tag_223\n        /* \"#utility.yul\":7871:7875   */\n      dup2\n        /* \"#utility.yul\":7745:7876   */\n      tag_134\n      jump\t// in\n    tag_223:\n        /* \"#utility.yul\":7737:7876   */\n      swap1\n      pop\n        /* \"#utility.yul\":7464:7883   */\n      swap2\n      swap1\n      pop\n      jump\t// out\n        /* \"#utility.yul\":7889:8069   */\n    tag_135:\n        /* \"#utility.yul\":7937:8014   */\n      0x4e487b7100000000000000000000000000000000000000000000000000000000\n        /* \"#utility.yul\":7934:7935   */\n      0x00\n        /* \"#utility.yul\":7927:8015   */\n      mstore\n        /* \"#utility.yul\":8034:8038   */\n      0x11\n        /* \"#utility.yul\":8031:8032   */\n      0x04\n        /* \"#utility.yul\":8024:8039   */\n      mstore\n        /* \"#utility.yul\":8058:8062   */\n      0x24\n        /* \"#utility.yul\":8055:8056   */\n      0x00\n        /* \"#utility.yul\":8048:8063   */\n      revert\n        /* \"#utility.yul\":8075:8485   */\n    tag_62:\n        /* \"#utility.yul\":8115:8122   */\n      0x00\n        /* \"#utility.yul\":8138:8158   */\n      tag_226\n        /* \"#utility.yul\":8156:8157   */\n      dup3\n        /* \"#utility.yul\":8138:8158   */\n      tag_118\n      jump\t// in\n    tag_226:\n        /* \"#utility.yul\":8133:8158   */\n      swap2\n      pop\n        /* \"#utility.yul\":8172:8192   */\n      tag_227\n        /* \"#utility.yul\":8190:8191   */\n      dup4\n        /* \"#utility.yul\":8172:8192   */\n      tag_118\n      jump\t// in\n    tag_227:\n        /* \"#utility.yul\":8167:8192   */\n      swap3\n      pop\n        /* \"#utility.yul\":8227:8228   */\n      dup3\n        /* \"#utility.yul\":8224:8225   */\n      dup3\n        /* \"#utility.yul\":8220:8229   */\n      mul\n        /* \"#utility.yul\":8249:8279   */\n      tag_228\n        /* \"#utility.yul\":8267:8278   */\n      dup2\n        /* \"#utility.yul\":8249:8279   */\n      tag_118\n      jump\t// in\n    tag_228:\n        /* \"#utility.yul\":8238:8279   */\n      swap2\n      pop\n        /* \"#utility.yul\":8428:8429   */\n      dup3\n        /* \"#utility.yul\":8419:8426   */\n      dup3\n        /* \"#utility.yul\":8415:8430   */\n      div\n        /* \"#utility.yul\":8412:8413   */\n      dup5\n        /* \"#utility.yul\":8409:8431   */\n      eq\n        /* \"#utility.yul\":8389:8390   */\n      dup4\n        /* \"#utility.yul\":8382:8391   */\n      iszero\n        /* \"#utility.yul\":8362:8445   */\n      or\n        /* \"#utility.yul\":8339:8478   */\n      tag_229\n      jumpi\n        /* \"#utility.yul\":8458:8476   */\n      tag_230\n      tag_135\n      jump\t// in\n    tag_230:\n        /* \"#utility.yul\":8339:8478   */\n    tag_229:\n        /* \"#utility.yul\":8123:8485   */\n      pop\n        /* \"#utility.yul\":8075:8485   */\n      swap3\n      swap2\n      pop\n      pop\n      jump\t// out\n        /* \"#utility.yul\":8491:8671   */\n    tag_136:\n        /* \"#utility.yul\":8539:8616   */\n      0x4e487b7100000000000000000000000000000000000000000000000000000000\n        /* \"#utility.yul\":8536:8537   */\n      0x00\n        /* \"#utility.yul\":8529:8617   */\n      mstore\n        /* \"#utility.yul\":8636:8640   */\n      0x12\n        /* \"#utility.yul\":8633:8634   */\n      0x04\n        /* \"#utility.yul\":8626:8641   */\n      mstore\n        /* \"#utility.yul\":8660:8664   */\n      0x24\n        /* \"#utility.yul\":8657:8658   */\n      0x00\n        /* \"#utility.yul\":8650:8665   */\n      revert\n        /* \"#utility.yul\":8677:8862   */\n    tag_64:\n        /* \"#utility.yul\":8717:8718   */\n      0x00\n        /* \"#utility.yul\":8734:8754   */\n      tag_233\n        /* \"#utility.yul\":8752:8753   */\n      dup3\n        /* \"#utility.yul\":8734:8754   */\n      tag_118\n      jump\t// in\n    tag_233:\n        /* \"#utility.yul\":8729:8754   */\n      swap2\n      pop\n        /* \"#utility.yul\":8768:8788   */\n      tag_234\n        /* \"#utility.yul\":8786:8787   */\n      dup4\n        /* \"#utility.yul\":8768:8788   */\n      tag_118\n      jump\t// in\n    tag_234:\n        /* \"#utility.yul\":8763:8788   */\n      swap3\n      pop\n        /* \"#utility.yul\":8807:8808   */\n      dup3\n        /* \"#utility.yul\":8797:8832   */\n      tag_235\n      jumpi\n        /* \"#utility.yul\":8812:8830   */\n      tag_236\n      tag_136\n      jump\t// in\n    tag_236:\n        /* \"#utility.yul\":8797:8832   */\n    tag_235:\n        /* \"#utility.yul\":8854:8855   */\n      dup3\n        /* \"#utility.yul\":8851:8852   */\n      dup3\n        /* \"#utility.yul\":8847:8856   */\n      div\n        /* \"#utility.yul\":8842:8856   */\n      swap1\n      pop\n        /* \"#utility.yul\":8677:8862   */\n      swap3\n      swap2\n      pop\n      pop\n      jump\t// out\n        /* \"#utility.yul\":8868:9042   */\n    tag_137:\n        /* \"#utility.yul\":9008:9034   */\n      0x53756d61206465207265747261732065737465207a65726f0000000000000000\n        /* \"#utility.yul\":9004:9005   */\n      0x00\n        /* \"#utility.yul\":8996:9002   */\n      dup3\n        /* \"#utility.yul\":8992:9006   */\n      add\n        /* \"#utility.yul\":8985:9035   */\n      mstore\n        /* \"#utility.yul\":8868:9042   */\n      pop\n      jump\t// out\n        /* \"#utility.yul\":9048:9414   */\n    tag_138:\n        /* \"#utility.yul\":9190:9193   */\n      0x00\n        /* \"#utility.yul\":9211:9278   */\n      tag_239\n        /* \"#utility.yul\":9275:9277   */\n      0x18\n        /* \"#utility.yul\":9270:9273   */\n      dup4\n        /* \"#utility.yul\":9211:9278   */\n      tag_128\n      jump\t// in\n    tag_239:\n        /* \"#utility.yul\":9204:9278   */\n      swap2\n      pop\n        /* \"#utility.yul\":9287:9380   */\n      tag_240\n        /* \"#utility.yul\":9376:9379   */\n      dup3\n        /* \"#utility.yul\":9287:9380   */\n      tag_137\n      jump\t// in\n    tag_240:\n        /* \"#utility.yul\":9405:9407   */\n      0x20\n        /* \"#utility.yul\":9400:9403   */\n      dup3\n        /* \"#utility.yul\":9396:9408   */\n      add\n        /* \"#utility.yul\":9389:9408   */\n      swap1\n      pop\n        /* \"#utility.yul\":9048:9414   */\n      swap2\n      swap1\n      pop\n      jump\t// out\n        /* \"#utility.yul\":9420:9839   */\n    tag_67:\n        /* \"#utility.yul\":9586:9590   */\n      0x00\n        /* \"#utility.yul\":9624:9626   */\n      0x20\n        /* \"#utility.yul\":9613:9622   */\n      dup3\n        /* \"#utility.yul\":9609:9627   */\n      add\n        /* \"#utility.yul\":9601:9627   */\n      swap1\n      pop\n        /* \"#utility.yul\":9673:9682   */\n      dup2\n        /* \"#utility.yul\":9667:9671   */\n      dup2\n        /* \"#utility.yul\":9663:9683   */\n      sub\n        /* \"#utility.yul\":9659:9660   */\n      0x00\n        /* \"#utility.yul\":9648:9657   */\n      dup4\n        /* \"#utility.yul\":9644:9661   */\n      add\n        /* \"#utility.yul\":9637:9684   */\n      mstore\n        /* \"#utility.yul\":9701:9832   */\n      tag_242\n        /* \"#utility.yul\":9827:9831   */\n      dup2\n        /* \"#utility.yul\":9701:9832   */\n      tag_138\n      jump\t// in\n    tag_242:\n        /* \"#utility.yul\":9693:9832   */\n      swap1\n      pop\n        /* \"#utility.yul\":9420:9839   */\n      swap2\n      swap1\n      pop\n      jump\t// out\n        /* \"#utility.yul\":9845:10177   */\n    tag_69:\n        /* \"#utility.yul\":9966:9970   */\n      0x00\n        /* \"#utility.yul\":10004:10006   */\n      0x40\n        /* \"#utility.yul\":9993:10002   */\n      dup3\n        /* \"#utility.yul\":9989:10007   */\n      add\n        /* \"#utility.yul\":9981:10007   */\n      swap1\n      pop\n        /* \"#utility.yul\":10017:10088   */\n      tag_244\n        /* \"#utility.yul\":10085:10086   */\n      0x00\n        /* \"#utility.yul\":10074:10083   */\n      dup4\n        /* \"#utility.yul\":10070:10087   */\n      add\n        /* \"#utility.yul\":10061:10067   */\n      dup6\n        /* \"#utility.yul\":10017:10088   */\n      tag_122\n      jump\t// in\n    tag_244:\n        /* \"#utility.yul\":10098:10170   */\n      tag_245\n        /* \"#utility.yul\":10166:10168   */\n      0x20\n        /* \"#utility.yul\":10155:10164   */\n      dup4\n        /* \"#utility.yul\":10151:10169   */\n      add\n        /* \"#utility.yul\":10142:10148   */\n      dup5\n        /* \"#utility.yul\":10098:10170   */\n      tag_119\n      jump\t// in\n    tag_245:\n        /* \"#utility.yul\":9845:10177   */\n      swap4\n      swap3\n      pop\n      pop\n      pop\n      jump\t// out\n        /* \"#utility.yul\":10183:10299   */\n    tag_139:\n        /* \"#utility.yul\":10253:10274   */\n      tag_247\n        /* \"#utility.yul\":10268:10273   */\n      dup2\n        /* \"#utility.yul\":10253:10274   */\n      tag_109\n      jump\t// in\n    tag_247:\n        /* \"#utility.yul\":10246:10251   */\n      dup2\n        /* \"#utility.yul\":10243:10275   */\n      eq\n        /* \"#utility.yul\":10233:10293   */\n      tag_248\n      jumpi\n        /* \"#utility.yul\":10289:10290   */\n      0x00\n        /* \"#utility.yul\":10286:10287   */\n      0x00\n        /* \"#utility.yul\":10279:10291   */\n      revert\n        /* \"#utility.yul\":10233:10293   */\n    tag_248:\n        /* \"#utility.yul\":10183:10299   */\n      pop\n      jump\t// out\n        /* \"#utility.yul\":10305:10442   */\n    tag_140:\n        /* \"#utility.yul\":10359:10364   */\n      0x00\n        /* \"#utility.yul\":10390:10396   */\n      dup2\n        /* \"#utility.yul\":10384:10397   */\n      mload\n        /* \"#utility.yul\":10375:10397   */\n      swap1\n      pop\n        /* \"#utility.yul\":10406:10436   */\n      tag_250\n        /* \"#utility.yul\":10430:10435   */\n      dup2\n        /* \"#utility.yul\":10406:10436   */\n      tag_139\n      jump\t// in\n    tag_250:\n        /* \"#utility.yul\":10305:10442   */\n      swap3\n      swap2\n      pop\n      pop\n      jump\t// out\n        /* \"#utility.yul\":10448:10793   */\n    tag_73:\n        /* \"#utility.yul\":10515:10521   */\n      0x00\n        /* \"#utility.yul\":10564:10566   */\n      0x20\n        /* \"#utility.yul\":10552:10561   */\n      dup3\n        /* \"#utility.yul\":10543:10550   */\n      dup5\n        /* \"#utility.yul\":10539:10562   */\n      sub\n        /* \"#utility.yul\":10535:10567   */\n      slt\n        /* \"#utility.yul\":10532:10651   */\n      iszero\n      tag_252\n      jumpi\n        /* \"#utility.yul\":10570:10649   */\n      tag_253\n      tag_112\n      jump\t// in\n    tag_253:\n        /* \"#utility.yul\":10532:10651   */\n    tag_252:\n        /* \"#utility.yul\":10690:10691   */\n      0x00\n        /* \"#utility.yul\":10715:10776   */\n      tag_254\n        /* \"#utility.yul\":10768:10775   */\n      dup5\n        /* \"#utility.yul\":10759:10765   */\n      dup3\n        /* \"#utility.yul\":10748:10757   */\n      dup6\n        /* \"#utility.yul\":10744:10766   */\n      add\n        /* \"#utility.yul\":10715:10776   */\n      tag_140\n      jump\t// in\n    tag_254:\n        /* \"#utility.yul\":10705:10776   */\n      swap2\n      pop\n        /* \"#utility.yul\":10661:10786   */\n      pop\n        /* \"#utility.yul\":10448:10793   */\n      swap3\n      swap2\n      pop\n      pop\n      jump\t// out\n        /* \"#utility.yul\":10799:10976   */\n    tag_141:\n        /* \"#utility.yul\":10939:10968   */\n      0x446973747269627569726561206120696e63657075742064656a610000000000\n        /* \"#utility.yul\":10935:10936   */\n      0x00\n        /* \"#utility.yul\":10927:10933   */\n      dup3\n        /* \"#utility.yul\":10923:10937   */\n      add\n        /* \"#utility.yul\":10916:10969   */\n      mstore\n        /* \"#utility.yul\":10799:10976   */\n      pop\n      jump\t// out\n        /* \"#utility.yul\":10982:11348   */\n    tag_142:\n        /* \"#utility.yul\":11124:11127   */\n      0x00\n        /* \"#utility.yul\":11145:11212   */\n      tag_257\n        /* \"#utility.yul\":11209:11211   */\n      0x1b\n        /* \"#utility.yul\":11204:11207   */\n      dup4\n        /* \"#utility.yul\":11145:11212   */\n      tag_128\n      jump\t// in\n    tag_257:\n        /* \"#utility.yul\":11138:11212   */\n      swap2\n      pop\n        /* \"#utility.yul\":11221:11314   */\n      tag_258\n        /* \"#utility.yul\":11310:11313   */\n      dup3\n        /* \"#utility.yul\":11221:11314   */\n      tag_141\n      jump\t// in\n    tag_258:\n        /* \"#utility.yul\":11339:11341   */\n      0x20\n        /* \"#utility.yul\":11334:11337   */\n      dup3\n        /* \"#utility.yul\":11330:11342   */\n      add\n        /* \"#utility.yul\":11323:11342   */\n      swap1\n      pop\n        /* \"#utility.yul\":10982:11348   */\n      swap2\n      swap1\n      pop\n      jump\t// out\n        /* \"#utility.yul\":11354:11773   */\n    tag_85:\n        /* \"#utility.yul\":11520:11524   */\n      0x00\n        /* \"#utility.yul\":11558:11560   */\n      0x20\n        /* \"#utility.yul\":11547:11556   */\n      dup3\n        /* \"#utility.yul\":11543:11561   */\n      add\n        /* \"#utility.yul\":11535:11561   */\n      swap1\n      pop\n        /* \"#utility.yul\":11607:11616   */\n      dup2\n        /* \"#utility.yul\":11601:11605   */\n      dup2\n        /* \"#utility.yul\":11597:11617   */\n      sub\n        /* \"#utility.yul\":11593:11594   */\n      0x00\n        /* \"#utility.yul\":11582:11591   */\n      dup4\n        /* \"#utility.yul\":11578:11595   */\n      add\n        /* \"#utility.yul\":11571:11618   */\n      mstore\n        /* \"#utility.yul\":11635:11766   */\n      tag_260\n        /* \"#utility.yul\":11761:11765   */\n      dup2\n        /* \"#utility.yul\":11635:11766   */\n      tag_142\n      jump\t// in\n    tag_260:\n        /* \"#utility.yul\":11627:11766   */\n      swap1\n      pop\n        /* \"#utility.yul\":11354:11773   */\n      swap2\n      swap1\n      pop\n      jump\t// out\n        /* \"#utility.yul\":11779:11945   */\n    tag_143:\n        /* \"#utility.yul\":11919:11937   */\n      0x506f6e6465726520696e76616c69646100000000000000000000000000000000\n        /* \"#utility.yul\":11915:11916   */\n      0x00\n        /* \"#utility.yul\":11907:11913   */\n      dup3\n        /* \"#utility.yul\":11903:11917   */\n      add\n        /* \"#utility.yul\":11896:11938   */\n      mstore\n        /* \"#utility.yul\":11779:11945   */\n      pop\n      jump\t// out\n        /* \"#utility.yul\":11951:12317   */\n    tag_144:\n        /* \"#utility.yul\":12093:12096   */\n      0x00\n        /* \"#utility.yul\":12114:12181   */\n      tag_263\n        /* \"#utility.yul\":12178:12180   */\n      0x10\n        /* \"#utility.yul\":12173:12176   */\n      dup4\n        /* \"#utility.yul\":12114:12181   */\n      tag_128\n      jump\t// in\n    tag_263:\n        /* \"#utility.yul\":12107:12181   */\n      swap2\n      pop\n        /* \"#utility.yul\":12190:12283   */\n      tag_264\n        /* \"#utility.yul\":12279:12282   */\n      dup3\n        /* \"#utility.yul\":12190:12283   */\n      tag_143\n      jump\t// in\n    tag_264:\n        /* \"#utility.yul\":12308:12310   */\n      0x20\n        /* \"#utility.yul\":12303:12306   */\n      dup3\n        /* \"#utility.yul\":12299:12311   */\n      add\n        /* \"#utility.yul\":12292:12311   */\n      swap1\n      pop\n        /* \"#utility.yul\":11951:12317   */\n      swap2\n      swap1\n      pop\n      jump\t// out\n        /* \"#utility.yul\":12323:12742   */\n    tag_89:\n        /* \"#utility.yul\":12489:12493   */\n      0x00\n        /* \"#utility.yul\":12527:12529   */\n      0x20\n        /* \"#utility.yul\":12516:12525   */\n      dup3\n        /* \"#utility.yul\":12512:12530   */\n      add\n        /* \"#utility.yul\":12504:12530   */\n      swap1\n      pop\n        /* \"#utility.yul\":12576:12585   */\n      dup2\n        /* \"#utility.yul\":12570:12574   */\n      dup2\n        /* \"#utility.yul\":12566:12586   */\n      sub\n        /* \"#utility.yul\":12562:12563   */\n      0x00\n        /* \"#utility.yul\":12551:12560   */\n      dup4\n        /* \"#utility.yul\":12547:12564   */\n      add\n        /* \"#utility.yul\":12540:12587   */\n      mstore\n        /* \"#utility.yul\":12604:12735   */\n      tag_266\n        /* \"#utility.yul\":12730:12734   */\n      dup2\n        /* \"#utility.yul\":12604:12735   */\n      tag_144\n      jump\t// in\n    tag_266:\n        /* \"#utility.yul\":12596:12735   */\n      swap1\n      pop\n        /* \"#utility.yul\":12323:12742   */\n      swap2\n      swap1\n      pop\n      jump\t// out\n        /* \"#utility.yul\":12748:12939   */\n    tag_92:\n        /* \"#utility.yul\":12788:12791   */\n      0x00\n        /* \"#utility.yul\":12807:12827   */\n      tag_268\n        /* \"#utility.yul\":12825:12826   */\n      dup3\n        /* \"#utility.yul\":12807:12827   */\n      tag_118\n      jump\t// in\n    tag_268:\n        /* \"#utility.yul\":12802:12827   */\n      swap2\n      pop\n        /* \"#utility.yul\":12841:12861   */\n      tag_269\n        /* \"#utility.yul\":12859:12860   */\n      dup4\n        /* \"#utility.yul\":12841:12861   */\n      tag_118\n      jump\t// in\n    tag_269:\n        /* \"#utility.yul\":12836:12861   */\n      swap3\n      pop\n        /* \"#utility.yul\":12884:12885   */\n      dup3\n        /* \"#utility.yul\":12881:12882   */\n      dup3\n        /* \"#utility.yul\":12877:12886   */\n      add\n        /* \"#utility.yul\":12870:12886   */\n      swap1\n      pop\n        /* \"#utility.yul\":12905:12908   */\n      dup1\n        /* \"#utility.yul\":12902:12903   */\n      dup3\n        /* \"#utility.yul\":12899:12909   */\n      gt\n        /* \"#utility.yul\":12896:12932   */\n      iszero\n      tag_270\n      jumpi\n        /* \"#utility.yul\":12912:12930   */\n      tag_271\n      tag_135\n      jump\t// in\n    tag_271:\n        /* \"#utility.yul\":12896:12932   */\n    tag_270:\n        /* \"#utility.yul\":12748:12939   */\n      swap3\n      swap2\n      pop\n      pop\n      jump\t// out\n\n    auxdata: 0xa264697066735822122016968e67ac3f4fd19786cd9c0f272780cb4d3341e44fb922320f2e6f537870cb64736f6c634300081e0033\n}\n",
				"bytecode": {
					"linkReferences": {},
					"object": "60806040525f60045f6101000a81548160ff021916908315150217905550348015610028575f5ffd5b506040516110f03803806110f0833981810160405281019061004a9190610230565b335f73ffffffffffffffffffffffffffffffffffffffff168173ffffffffffffffffffffffffffffffffffffffff16036100bb575f6040517f1e4fbdf70000000000000000000000000000000000000000000000000000000081526004016100b2919061026a565b60405180910390fd5b6100ca8161011160201b60201c565b508060015f6101000a81548173ffffffffffffffffffffffffffffffffffffffff021916908373ffffffffffffffffffffffffffffffffffffffff16021790555050610283565b5f5f5f9054906101000a900473ffffffffffffffffffffffffffffffffffffffff169050815f5f6101000a81548173ffffffffffffffffffffffffffffffffffffffff021916908373ffffffffffffffffffffffffffffffffffffffff1602179055508173ffffffffffffffffffffffffffffffffffffffff168173ffffffffffffffffffffffffffffffffffffffff167f8be0079c531659141344cd1fd0a4f28419497f9722a3daafe3b4186f6b6457e060405160405180910390a35050565b5f5ffd5b5f73ffffffffffffffffffffffffffffffffffffffff82169050919050565b5f6101ff826101d6565b9050919050565b61020f816101f5565b8114610219575f5ffd5b50565b5f8151905061022a81610206565b92915050565b5f60208284031215610245576102446101d2565b5b5f6102528482850161021c565b91505092915050565b610264816101f5565b82525050565b5f60208201905061027d5f83018461025b565b92915050565b610e60806102905f395ff3fe608060405234801561000f575f5ffd5b506004361061009c575f3560e01c80638827e09b116100645780638827e09b1461011f5780638da5cb5b1461013b578063bf27f58514610159578063f2fde38b14610177578063fc0c546a146101935761009c565b806307351832146100a05780634e71d92d146100be5780635c2930ad146100c8578063715018a6146100f95780637572499014610103575b5f5ffd5b6100a86101b1565b6040516100b591906107e1565b60405180910390f35b6100c66101c3565b005b6100e260048036038101906100dd9190610858565b610406565b6040516100f092919061089b565b60405180910390f35b610101610432565b005b61011d600480360381019061011891906108ec565b610445565b005b6101396004803603810190610134919061092a565b61056d565b005b6101436105a2565b6040516101509190610964565b60405180910390f35b6101616105c9565b60405161016e919061097d565b60405180910390f35b610191600480360381019061018c9190610858565b6105cf565b005b61019b610653565b6040516101a891906109f1565b60405180910390f35b60045f9054906101000a900460ff1681565b60045f9054906101000a900460ff16610211576040517f08c379a000000000000000000000000000000000000000000000000000000000815260040161020890610a64565b60405180910390fd5b5f60025f3373ffffffffffffffffffffffffffffffffffffffff1673ffffffffffffffffffffffffffffffffffffffff1681526020019081526020015f2090505f815f015411610296576040517f08c379a000000000000000000000000000000000000000000000000000000000815260040161028d90610af2565b60405180910390fd5b806001015f9054906101000a900460ff16156102e7576040517f08c379a00000000000000000000000000000000000000000000000000000000081526004016102de90610b5a565b60405180910390fd5b5f6064825f01546003546102fb9190610ba5565b6103059190610c13565b90505f8111610349576040517f08c379a000000000000000000000000000000000000000000000000000000000815260040161034090610c8d565b60405180910390fd5b6001826001015f6101000a81548160ff02191690831515021790555060015f9054906101000a900473ffffffffffffffffffffffffffffffffffffffff1673ffffffffffffffffffffffffffffffffffffffff1663a9059cbb33836040518363ffffffff1660e01b81526004016103c1929190610cab565b6020604051808303815f875af11580156103dd573d5f5f3e3d5ffd5b505050506040513d601f19601f820116820180604052508101906104019190610cfc565b505050565b6002602052805f5260405f205f91509050805f015490806001015f9054906101000a900460ff16905082565b61043a610678565b6104435f6106ff565b565b61044d610678565b60045f9054906101000a900460ff161561049c576040517f08c379a000000000000000000000000000000000000000000000000000000000815260040161049390610d71565b60405180910390fd5b5f811180156104ac575060648111155b6104eb576040517f08c379a00000000000000000000000000000000000000000000000000000000081526004016104e290610dd9565b60405180910390fd5b60405180604001604052808281526020015f151581525060025f8473ffffffffffffffffffffffffffffffffffffffff1673ffffffffffffffffffffffffffffffffffffffff1681526020019081526020015f205f820151815f01556020820151816001015f6101000a81548160ff0219169083151502179055509050505050565b8060035f82825461057e9190610df7565b92505081905550600160045f6101000a81548160ff02191690831515021790555050565b5f5f5f9054906101000a900473ffffffffffffffffffffffffffffffffffffffff16905090565b60035481565b6105d7610678565b5f73ffffffffffffffffffffffffffffffffffffffff168173ffffffffffffffffffffffffffffffffffffffff1603610647575f6040517f1e4fbdf700000000000000000000000000000000000000000000000000000000815260040161063e9190610964565b60405180910390fd5b610650816106ff565b50565b60015f9054906101000a900473ffffffffffffffffffffffffffffffffffffffff1681565b6106806107c0565b73ffffffffffffffffffffffffffffffffffffffff1661069e6105a2565b73ffffffffffffffffffffffffffffffffffffffff16146106fd576106c16107c0565b6040517f118cdaa70000000000000000000000000000000000000000000000000000000081526004016106f49190610964565b60405180910390fd5b565b5f5f5f9054906101000a900473ffffffffffffffffffffffffffffffffffffffff169050815f5f6101000a81548173ffffffffffffffffffffffffffffffffffffffff021916908373ffffffffffffffffffffffffffffffffffffffff1602179055508173ffffffffffffffffffffffffffffffffffffffff168173ffffffffffffffffffffffffffffffffffffffff167f8be0079c531659141344cd1fd0a4f28419497f9722a3daafe3b4186f6b6457e060405160405180910390a35050565b5f33905090565b5f8115159050919050565b6107db816107c7565b82525050565b5f6020820190506107f45f8301846107d2565b92915050565b5f5ffd5b5f73ffffffffffffffffffffffffffffffffffffffff82169050919050565b5f610827826107fe565b9050919050565b6108378161081d565b8114610841575f5ffd5b50565b5f813590506108528161082e565b92915050565b5f6020828403121561086d5761086c6107fa565b5b5f61087a84828501610844565b91505092915050565b5f819050919050565b61089581610883565b82525050565b5f6040820190506108ae5f83018561088c565b6108bb60208301846107d2565b9392505050565b6108cb81610883565b81146108d5575f5ffd5b50565b5f813590506108e6816108c2565b92915050565b5f5f60408385031215610902576109016107fa565b5b5f61090f85828601610844565b9250506020610920858286016108d8565b9150509250929050565b5f6020828403121561093f5761093e6107fa565b5b5f61094c848285016108d8565b91505092915050565b61095e8161081d565b82525050565b5f6020820190506109775f830184610955565b92915050565b5f6020820190506109905f83018461088c565b92915050565b5f819050919050565b5f6109b96109b46109af846107fe565b610996565b6107fe565b9050919050565b5f6109ca8261099f565b9050919050565b5f6109db826109c0565b9050919050565b6109eb816109d1565b82525050565b5f602082019050610a045f8301846109e2565b92915050565b5f82825260208201905092915050565b7f466f6e647572696c65206e7520617520666f737420696e6361207669726174655f82015250565b5f610a4e602083610a0a565b9150610a5982610a1a565b602082019050919050565b5f6020820190508181035f830152610a7b81610a42565b9050919050565b7f4e752073756e7465746920696e7265676973747261742063612062656e6566695f8201527f6369617200000000000000000000000000000000000000000000000000000000602082015250565b5f610adc602483610a0a565b9150610ae782610a82565b604082019050919050565b5f6020820190508181035f830152610b0981610ad0565b9050919050565b7f417469207265747261732064656a612076656e6974756c0000000000000000005f82015250565b5f610b44601783610a0a565b9150610b4f82610b10565b602082019050919050565b5f6020820190508181035f830152610b7181610b38565b9050919050565b7f4e487b71000000000000000000000000000000000000000000000000000000005f52601160045260245ffd5b5f610baf82610883565b9150610bba83610883565b9250828202610bc881610883565b91508282048414831517610bdf57610bde610b78565b5b5092915050565b7f4e487b71000000000000000000000000000000000000000000000000000000005f52601260045260245ffd5b5f610c1d82610883565b9150610c2883610883565b925082610c3857610c37610be6565b5b828204905092915050565b7f53756d61206465207265747261732065737465207a65726f00000000000000005f82015250565b5f610c77601883610a0a565b9150610c8282610c43565b602082019050919050565b5f6020820190508181035f830152610ca481610c6b565b9050919050565b5f604082019050610cbe5f830185610955565b610ccb602083018461088c565b9392505050565b610cdb816107c7565b8114610ce5575f5ffd5b50565b5f81519050610cf681610cd2565b92915050565b5f60208284031215610d1157610d106107fa565b5b5f610d1e84828501610ce8565b91505092915050565b7f446973747269627569726561206120696e63657075742064656a6100000000005f82015250565b5f610d5b601b83610a0a565b9150610d6682610d27565b602082019050919050565b5f6020820190508181035f830152610d8881610d4f565b9050919050565b7f506f6e6465726520696e76616c696461000000000000000000000000000000005f82015250565b5f610dc3601083610a0a565b9150610dce82610d8f565b602082019050919050565b5f6020820190508181035f830152610df081610db7565b9050919050565b5f610e0182610883565b9150610e0c83610883565b9250828201905080821115610e2457610e23610b78565b5b9291505056fea264697066735822122016968e67ac3f4fd19786cd9c0f272780cb4d3341e44fb922320f2e6f537870cb64736f6c634300081e0033",
					"opcodes": "PUSH1 0x80 PUSH1 0x40 MSTORE PUSH0 PUSH1 0x4 PUSH0 PUSH2 0x100 EXP DUP2 SLOAD DUP2 PUSH1 0xFF MUL NOT AND SWAP1 DUP4 ISZERO ISZERO MUL OR SWAP1 SSTORE POP CALLVALUE DUP1 ISZERO PUSH2 0x28 JUMPI PUSH0 PUSH0 REVERT JUMPDEST POP PUSH1 0x40 MLOAD PUSH2 0x10F0 CODESIZE SUB DUP1 PUSH2 0x10F0 DUP4 CODECOPY DUP2 DUP2 ADD PUSH1 0x40 MSTORE DUP2 ADD SWAP1 PUSH2 0x4A SWAP2 SWAP1 PUSH2 0x230 JUMP JUMPDEST CALLER PUSH0 PUSH20 0xFFFFFFFFFFFFFFFFFFFFFFFFFFFFFFFFFFFFFFFF AND DUP2 PUSH20 0xFFFFFFFFFFFFFFFFFFFFFFFFFFFFFFFFFFFFFFFF AND SUB PUSH2 0xBB JUMPI PUSH0 PUSH1 0x40 MLOAD PUSH32 0x1E4FBDF700000000000000000000000000000000000000000000000000000000 DUP2 MSTORE PUSH1 0x4 ADD PUSH2 0xB2 SWAP2 SWAP1 PUSH2 0x26A JUMP JUMPDEST PUSH1 0x40 MLOAD DUP1 SWAP2 SUB SWAP1 REVERT JUMPDEST PUSH2 0xCA DUP2 PUSH2 0x111 PUSH1 0x20 SHL PUSH1 0x20 SHR JUMP JUMPDEST POP DUP1 PUSH1 0x1 PUSH0 PUSH2 0x100 EXP DUP2 SLOAD DUP2 PUSH20 0xFFFFFFFFFFFFFFFFFFFFFFFFFFFFFFFFFFFFFFFF MUL NOT AND SWAP1 DUP4 PUSH20 0xFFFFFFFFFFFFFFFFFFFFFFFFFFFFFFFFFFFFFFFF AND MUL OR SWAP1 SSTORE POP POP PUSH2 0x283 JUMP JUMPDEST PUSH0 PUSH0 PUSH0 SWAP1 SLOAD SWAP1 PUSH2 0x100 EXP SWAP1 DIV PUSH20 0xFFFFFFFFFFFFFFFFFFFFFFFFFFFFFFFFFFFFFFFF AND SWAP1 POP DUP2 PUSH0 PUSH0 PUSH2 0x100 EXP DUP2 SLOAD DUP2 PUSH20 0xFFFFFFFFFFFFFFFFFFFFFFFFFFFFFFFFFFFFFFFF MUL NOT AND SWAP1 DUP4 PUSH20 0xFFFFFFFFFFFFFFFFFFFFFFFFFFFFFFFFFFFFFFFF AND MUL OR SWAP1 SSTORE POP DUP2 PUSH20 0xFFFFFFFFFFFFFFFFFFFFFFFFFFFFFFFFFFFFFFFF AND DUP2 PUSH20 0xFFFFFFFFFFFFFFFFFFFFFFFFFFFFFFFFFFFFFFFF AND PUSH32 0x8BE0079C531659141344CD1FD0A4F28419497F9722A3DAAFE3B4186F6B6457E0 PUSH1 0x40 MLOAD PUSH1 0x40 MLOAD DUP1 SWAP2 SUB SWAP1 LOG3 POP POP JUMP JUMPDEST PUSH0 PUSH0 REVERT JUMPDEST PUSH0 PUSH20 0xFFFFFFFFFFFFFFFFFFFFFFFFFFFFFFFFFFFFFFFF DUP3 AND SWAP1 POP SWAP2 SWAP1 POP JUMP JUMPDEST PUSH0 PUSH2 0x1FF DUP3 PUSH2 0x1D6 JUMP JUMPDEST SWAP1 POP SWAP2 SWAP1 POP JUMP JUMPDEST PUSH2 0x20F DUP2 PUSH2 0x1F5 JUMP JUMPDEST DUP2 EQ PUSH2 0x219 JUMPI PUSH0 PUSH0 REVERT JUMPDEST POP JUMP JUMPDEST PUSH0 DUP2 MLOAD SWAP1 POP PUSH2 0x22A DUP2 PUSH2 0x206 JUMP JUMPDEST SWAP3 SWAP2 POP POP JUMP JUMPDEST PUSH0 PUSH1 0x20 DUP3 DUP5 SUB SLT ISZERO PUSH2 0x245 JUMPI PUSH2 0x244 PUSH2 0x1D2 JUMP JUMPDEST JUMPDEST PUSH0 PUSH2 0x252 DUP5 DUP3 DUP6 ADD PUSH2 0x21C JUMP JUMPDEST SWAP2 POP POP SWAP3 SWAP2 POP POP JUMP JUMPDEST PUSH2 0x264 DUP2 PUSH2 0x1F5 JUMP JUMPDEST DUP3 MSTORE POP POP JUMP JUMPDEST PUSH0 PUSH1 0x20 DUP3 ADD SWAP1 POP PUSH2 0x27D PUSH0 DUP4 ADD DUP5 PUSH2 0x25B JUMP JUMPDEST SWAP3 SWAP2 POP POP JUMP JUMPDEST PUSH2 0xE60 DUP1 PUSH2 0x290 PUSH0 CODECOPY PUSH0 RETURN INVALID PUSH1 0x80 PUSH1 0x40 MSTORE CALLVALUE DUP1 ISZERO PUSH2 0xF JUMPI PUSH0 PUSH0 REVERT JUMPDEST POP PUSH1 0x4 CALLDATASIZE LT PUSH2 0x9C JUMPI PUSH0 CALLDATALOAD PUSH1 0xE0 SHR DUP1 PUSH4 0x8827E09B GT PUSH2 0x64 JUMPI DUP1 PUSH4 0x8827E09B EQ PUSH2 0x11F JUMPI DUP1 PUSH4 0x8DA5CB5B EQ PUSH2 0x13B JUMPI DUP1 PUSH4 0xBF27F585 EQ PUSH2 0x159 JUMPI DUP1 PUSH4 0xF2FDE38B EQ PUSH2 0x177 JUMPI DUP1 PUSH4 0xFC0C546A EQ PUSH2 0x193 JUMPI PUSH2 0x9C JUMP JUMPDEST DUP1 PUSH4 0x7351832 EQ PUSH2 0xA0 JUMPI DUP1 PUSH4 0x4E71D92D EQ PUSH2 0xBE JUMPI DUP1 PUSH4 0x5C2930AD EQ PUSH2 0xC8 JUMPI DUP1 PUSH4 0x715018A6 EQ PUSH2 0xF9 JUMPI DUP1 PUSH4 0x75724990 EQ PUSH2 0x103 JUMPI JUMPDEST PUSH0 PUSH0 REVERT JUMPDEST PUSH2 0xA8 PUSH2 0x1B1 JUMP JUMPDEST PUSH1 0x40 MLOAD PUSH2 0xB5 SWAP2 SWAP1 PUSH2 0x7E1 JUMP JUMPDEST PUSH1 0x40 MLOAD DUP1 SWAP2 SUB SWAP1 RETURN JUMPDEST PUSH2 0xC6 PUSH2 0x1C3 JUMP JUMPDEST STOP JUMPDEST PUSH2 0xE2 PUSH1 0x4 DUP1 CALLDATASIZE SUB DUP2 ADD SWAP1 PUSH2 0xDD SWAP2 SWAP1 PUSH2 0x858 JUMP JUMPDEST PUSH2 0x406 JUMP JUMPDEST PUSH1 0x40 MLOAD PUSH2 0xF0 SWAP3 SWAP2 SWAP1 PUSH2 0x89B JUMP JUMPDEST PUSH1 0x40 MLOAD DUP1 SWAP2 SUB SWAP1 RETURN JUMPDEST PUSH2 0x101 PUSH2 0x432 JUMP JUMPDEST STOP JUMPDEST PUSH2 0x11D PUSH1 0x4 DUP1 CALLDATASIZE SUB DUP2 ADD SWAP1 PUSH2 0x118 SWAP2 SWAP1 PUSH2 0x8EC JUMP JUMPDEST PUSH2 0x445 JUMP JUMPDEST STOP JUMPDEST PUSH2 0x139 PUSH1 0x4 DUP1 CALLDATASIZE SUB DUP2 ADD SWAP1 PUSH2 0x134 SWAP2 SWAP1 PUSH2 0x92A JUMP JUMPDEST PUSH2 0x56D JUMP JUMPDEST STOP JUMPDEST PUSH2 0x143 PUSH2 0x5A2 JUMP JUMPDEST PUSH1 0x40 MLOAD PUSH2 0x150 SWAP2 SWAP1 PUSH2 0x964 JUMP JUMPDEST PUSH1 0x40 MLOAD DUP1 SWAP2 SUB SWAP1 RETURN JUMPDEST PUSH2 0x161 PUSH2 0x5C9 JUMP JUMPDEST PUSH1 0x40 MLOAD PUSH2 0x16E SWAP2 SWAP1 PUSH2 0x97D JUMP JUMPDEST PUSH1 0x40 MLOAD DUP1 SWAP2 SUB SWAP1 RETURN JUMPDEST PUSH2 0x191 PUSH1 0x4 DUP1 CALLDATASIZE SUB DUP2 ADD SWAP1 PUSH2 0x18C SWAP2 SWAP1 PUSH2 0x858 JUMP JUMPDEST PUSH2 0x5CF JUMP JUMPDEST STOP JUMPDEST PUSH2 0x19B PUSH2 0x653 JUMP JUMPDEST PUSH1 0x40 MLOAD PUSH2 0x1A8 SWAP2 SWAP1 PUSH2 0x9F1 JUMP JUMPDEST PUSH1 0x40 MLOAD DUP1 SWAP2 SUB SWAP1 RETURN JUMPDEST PUSH1 0x4 PUSH0 SWAP1 SLOAD SWAP1 PUSH2 0x100 EXP SWAP1 DIV PUSH1 0xFF AND DUP2 JUMP JUMPDEST PUSH1 0x4 PUSH0 SWAP1 SLOAD SWAP1 PUSH2 0x100 EXP SWAP1 DIV PUSH1 0xFF AND PUSH2 0x211 JUMPI PUSH1 0x40 MLOAD PUSH32 0x8C379A000000000000000000000000000000000000000000000000000000000 DUP2 MSTORE PUSH1 0x4 ADD PUSH2 0x208 SWAP1 PUSH2 0xA64 JUMP JUMPDEST PUSH1 0x40 MLOAD DUP1 SWAP2 SUB SWAP1 REVERT JUMPDEST PUSH0 PUSH1 0x2 PUSH0 CALLER PUSH20 0xFFFFFFFFFFFFFFFFFFFFFFFFFFFFFFFFFFFFFFFF AND PUSH20 0xFFFFFFFFFFFFFFFFFFFFFFFFFFFFFFFFFFFFFFFF AND DUP2 MSTORE PUSH1 0x20 ADD SWAP1 DUP2 MSTORE PUSH1 0x20 ADD PUSH0 KECCAK256 SWAP1 POP PUSH0 DUP2 PUSH0 ADD SLOAD GT PUSH2 0x296 JUMPI PUSH1 0x40 MLOAD PUSH32 0x8C379A000000000000000000000000000000000000000000000000000000000 DUP2 MSTORE PUSH1 0x4 ADD PUSH2 0x28D SWAP1 PUSH2 0xAF2 JUMP JUMPDEST PUSH1 0x40 MLOAD DUP1 SWAP2 SUB SWAP1 REVERT JUMPDEST DUP1 PUSH1 0x1 ADD PUSH0 SWAP1 SLOAD SWAP1 PUSH2 0x100 EXP SWAP1 DIV PUSH1 0xFF AND ISZERO PUSH2 0x2E7 JUMPI PUSH1 0x40 MLOAD PUSH32 0x8C379A000000000000000000000000000000000000000000000000000000000 DUP2 MSTORE PUSH1 0x4 ADD PUSH2 0x2DE SWAP1 PUSH2 0xB5A JUMP JUMPDEST PUSH1 0x40 MLOAD DUP1 SWAP2 SUB SWAP1 REVERT JUMPDEST PUSH0 PUSH1 0x64 DUP3 PUSH0 ADD SLOAD PUSH1 0x3 SLOAD PUSH2 0x2FB SWAP2 SWAP1 PUSH2 0xBA5 JUMP JUMPDEST PUSH2 0x305 SWAP2 SWAP1 PUSH2 0xC13 JUMP JUMPDEST SWAP1 POP PUSH0 DUP2 GT PUSH2 0x349 JUMPI PUSH1 0x40 MLOAD PUSH32 0x8C379A000000000000000000000000000000000000000000000000000000000 DUP2 MSTORE PUSH1 0x4 ADD PUSH2 0x340 SWAP1 PUSH2 0xC8D JUMP JUMPDEST PUSH1 0x40 MLOAD DUP1 SWAP2 SUB SWAP1 REVERT JUMPDEST PUSH1 0x1 DUP3 PUSH1 0x1 ADD PUSH0 PUSH2 0x100 EXP DUP2 SLOAD DUP2 PUSH1 0xFF MUL NOT AND SWAP1 DUP4 ISZERO ISZERO MUL OR SWAP1 SSTORE POP PUSH1 0x1 PUSH0 SWAP1 SLOAD SWAP1 PUSH2 0x100 EXP SWAP1 DIV PUSH20 0xFFFFFFFFFFFFFFFFFFFFFFFFFFFFFFFFFFFFFFFF AND PUSH20 0xFFFFFFFFFFFFFFFFFFFFFFFFFFFFFFFFFFFFFFFF AND PUSH4 0xA9059CBB CALLER DUP4 PUSH1 0x40 MLOAD DUP4 PUSH4 0xFFFFFFFF AND PUSH1 0xE0 SHL DUP2 MSTORE PUSH1 0x4 ADD PUSH2 0x3C1 SWAP3 SWAP2 SWAP1 PUSH2 0xCAB JUMP JUMPDEST PUSH1 0x20 PUSH1 0x40 MLOAD DUP1 DUP4 SUB DUP2 PUSH0 DUP8 GAS CALL ISZERO DUP1 ISZERO PUSH2 0x3DD JUMPI RETURNDATASIZE PUSH0 PUSH0 RETURNDATACOPY RETURNDATASIZE PUSH0 REVERT JUMPDEST POP POP POP POP PUSH1 0x40 MLOAD RETURNDATASIZE PUSH1 0x1F NOT PUSH1 0x1F DUP3 ADD AND DUP3 ADD DUP1 PUSH1 0x40 MSTORE POP DUP2 ADD SWAP1 PUSH2 0x401 SWAP2 SWAP1 PUSH2 0xCFC JUMP JUMPDEST POP POP POP JUMP JUMPDEST PUSH1 0x2 PUSH1 0x20 MSTORE DUP1 PUSH0 MSTORE PUSH1 0x40 PUSH0 KECCAK256 PUSH0 SWAP2 POP SWAP1 POP DUP1 PUSH0 ADD SLOAD SWAP1 DUP1 PUSH1 0x1 ADD PUSH0 SWAP1 SLOAD SWAP1 PUSH2 0x100 EXP SWAP1 DIV PUSH1 0xFF AND SWAP1 POP DUP3 JUMP JUMPDEST PUSH2 0x43A PUSH2 0x678 JUMP JUMPDEST PUSH2 0x443 PUSH0 PUSH2 0x6FF JUMP JUMPDEST JUMP JUMPDEST PUSH2 0x44D PUSH2 0x678 JUMP JUMPDEST PUSH1 0x4 PUSH0 SWAP1 SLOAD SWAP1 PUSH2 0x100 EXP SWAP1 DIV PUSH1 0xFF AND ISZERO PUSH2 0x49C JUMPI PUSH1 0x40 MLOAD PUSH32 0x8C379A000000000000000000000000000000000000000000000000000000000 DUP2 MSTORE PUSH1 0x4 ADD PUSH2 0x493 SWAP1 PUSH2 0xD71 JUMP JUMPDEST PUSH1 0x40 MLOAD DUP1 SWAP2 SUB SWAP1 REVERT JUMPDEST PUSH0 DUP2 GT DUP1 ISZERO PUSH2 0x4AC JUMPI POP PUSH1 0x64 DUP2 GT ISZERO JUMPDEST PUSH2 0x4EB JUMPI PUSH1 0x40 MLOAD PUSH32 0x8C379A000000000000000000000000000000000000000000000000000000000 DUP2 MSTORE PUSH1 0x4 ADD PUSH2 0x4E2 SWAP1 PUSH2 0xDD9 JUMP JUMPDEST PUSH1 0x40 MLOAD DUP1 SWAP2 SUB SWAP1 REVERT JUMPDEST PUSH1 0x40 MLOAD DUP1 PUSH1 0x40 ADD PUSH1 0x40 MSTORE DUP1 DUP3 DUP2 MSTORE PUSH1 0x20 ADD PUSH0 ISZERO ISZERO DUP2 MSTORE POP PUSH1 0x2 PUSH0 DUP5 PUSH20 0xFFFFFFFFFFFFFFFFFFFFFFFFFFFFFFFFFFFFFFFF AND PUSH20 0xFFFFFFFFFFFFFFFFFFFFFFFFFFFFFFFFFFFFFFFF AND DUP2 MSTORE PUSH1 0x20 ADD SWAP1 DUP2 MSTORE PUSH1 0x20 ADD PUSH0 KECCAK256 PUSH0 DUP3 ADD MLOAD DUP2 PUSH0 ADD SSTORE PUSH1 0x20 DUP3 ADD MLOAD DUP2 PUSH1 0x1 ADD PUSH0 PUSH2 0x100 EXP DUP2 SLOAD DUP2 PUSH1 0xFF MUL NOT AND SWAP1 DUP4 ISZERO ISZERO MUL OR SWAP1 SSTORE POP SWAP1 POP POP POP POP JUMP JUMPDEST DUP1 PUSH1 0x3 PUSH0 DUP3 DUP3 SLOAD PUSH2 0x57E SWAP2 SWAP1 PUSH2 0xDF7 JUMP JUMPDEST SWAP3 POP POP DUP2 SWAP1 SSTORE POP PUSH1 0x1 PUSH1 0x4 PUSH0 PUSH2 0x100 EXP DUP2 SLOAD DUP2 PUSH1 0xFF MUL NOT AND SWAP1 DUP4 ISZERO ISZERO MUL OR SWAP1 SSTORE POP POP JUMP JUMPDEST PUSH0 PUSH0 PUSH0 SWAP1 SLOAD SWAP1 PUSH2 0x100 EXP SWAP1 DIV PUSH20 0xFFFFFFFFFFFFFFFFFFFFFFFFFFFFFFFFFFFFFFFF AND SWAP1 POP SWAP1 JUMP JUMPDEST PUSH1 0x3 SLOAD DUP2 JUMP JUMPDEST PUSH2 0x5D7 PUSH2 0x678 JUMP JUMPDEST PUSH0 PUSH20 0xFFFFFFFFFFFFFFFFFFFFFFFFFFFFFFFFFFFFFFFF AND DUP2 PUSH20 0xFFFFFFFFFFFFFFFFFFFFFFFFFFFFFFFFFFFFFFFF AND SUB PUSH2 0x647 JUMPI PUSH0 PUSH1 0x40 MLOAD PUSH32 0x1E4FBDF700000000000000000000000000000000000000000000000000000000 DUP2 MSTORE PUSH1 0x4 ADD PUSH2 0x63E SWAP2 SWAP1 PUSH2 0x964 JUMP JUMPDEST PUSH1 0x40 MLOAD DUP1 SWAP2 SUB SWAP1 REVERT JUMPDEST PUSH2 0x650 DUP2 PUSH2 0x6FF JUMP JUMPDEST POP JUMP JUMPDEST PUSH1 0x1 PUSH0 SWAP1 SLOAD SWAP1 PUSH2 0x100 EXP SWAP1 DIV PUSH20 0xFFFFFFFFFFFFFFFFFFFFFFFFFFFFFFFFFFFFFFFF AND DUP2 JUMP JUMPDEST PUSH2 0x680 PUSH2 0x7C0 JUMP JUMPDEST PUSH20 0xFFFFFFFFFFFFFFFFFFFFFFFFFFFFFFFFFFFFFFFF AND PUSH2 0x69E PUSH2 0x5A2 JUMP JUMPDEST PUSH20 0xFFFFFFFFFFFFFFFFFFFFFFFFFFFFFFFFFFFFFFFF AND EQ PUSH2 0x6FD JUMPI PUSH2 0x6C1 PUSH2 0x7C0 JUMP JUMPDEST PUSH1 0x40 MLOAD PUSH32 0x118CDAA700000000000000000000000000000000000000000000000000000000 DUP2 MSTORE PUSH1 0x4 ADD PUSH2 0x6F4 SWAP2 SWAP1 PUSH2 0x964 JUMP JUMPDEST PUSH1 0x40 MLOAD DUP1 SWAP2 SUB SWAP1 REVERT JUMPDEST JUMP JUMPDEST PUSH0 PUSH0 PUSH0 SWAP1 SLOAD SWAP1 PUSH2 0x100 EXP SWAP1 DIV PUSH20 0xFFFFFFFFFFFFFFFFFFFFFFFFFFFFFFFFFFFFFFFF AND SWAP1 POP DUP2 PUSH0 PUSH0 PUSH2 0x100 EXP DUP2 SLOAD DUP2 PUSH20 0xFFFFFFFFFFFFFFFFFFFFFFFFFFFFFFFFFFFFFFFF MUL NOT AND SWAP1 DUP4 PUSH20 0xFFFFFFFFFFFFFFFFFFFFFFFFFFFFFFFFFFFFFFFF AND MUL OR SWAP1 SSTORE POP DUP2 PUSH20 0xFFFFFFFFFFFFFFFFFFFFFFFFFFFFFFFFFFFFFFFF AND DUP2 PUSH20 0xFFFFFFFFFFFFFFFFFFFFFFFFFFFFFFFFFFFFFFFF AND PUSH32 0x8BE0079C531659141344CD1FD0A4F28419497F9722A3DAAFE3B4186F6B6457E0 PUSH1 0x40 MLOAD PUSH1 0x40 MLOAD DUP1 SWAP2 SUB SWAP1 LOG3 POP POP JUMP JUMPDEST PUSH0 CALLER SWAP1 POP SWAP1 JUMP JUMPDEST PUSH0 DUP2 ISZERO ISZERO SWAP1 POP SWAP2 SWAP1 POP JUMP JUMPDEST PUSH2 0x7DB DUP2 PUSH2 0x7C7 JUMP JUMPDEST DUP3 MSTORE POP POP JUMP JUMPDEST PUSH0 PUSH1 0x20 DUP3 ADD SWAP1 POP PUSH2 0x7F4 PUSH0 DUP4 ADD DUP5 PUSH2 0x7D2 JUMP JUMPDEST SWAP3 SWAP2 POP POP JUMP JUMPDEST PUSH0 PUSH0 REVERT JUMPDEST PUSH0 PUSH20 0xFFFFFFFFFFFFFFFFFFFFFFFFFFFFFFFFFFFFFFFF DUP3 AND SWAP1 POP SWAP2 SWAP1 POP JUMP JUMPDEST PUSH0 PUSH2 0x827 DUP3 PUSH2 0x7FE JUMP JUMPDEST SWAP1 POP SWAP2 SWAP1 POP JUMP JUMPDEST PUSH2 0x837 DUP2 PUSH2 0x81D JUMP JUMPDEST DUP2 EQ PUSH2 0x841 JUMPI PUSH0 PUSH0 REVERT JUMPDEST POP JUMP JUMPDEST PUSH0 DUP2 CALLDATALOAD SWAP1 POP PUSH2 0x852 DUP2 PUSH2 0x82E JUMP JUMPDEST SWAP3 SWAP2 POP POP JUMP JUMPDEST PUSH0 PUSH1 0x20 DUP3 DUP5 SUB SLT ISZERO PUSH2 0x86D JUMPI PUSH2 0x86C PUSH2 0x7FA JUMP JUMPDEST JUMPDEST PUSH0 PUSH2 0x87A DUP5 DUP3 DUP6 ADD PUSH2 0x844 JUMP JUMPDEST SWAP2 POP POP SWAP3 SWAP2 POP POP JUMP JUMPDEST PUSH0 DUP2 SWAP1 POP SWAP2 SWAP1 POP JUMP JUMPDEST PUSH2 0x895 DUP2 PUSH2 0x883 JUMP JUMPDEST DUP3 MSTORE POP POP JUMP JUMPDEST PUSH0 PUSH1 0x40 DUP3 ADD SWAP1 POP PUSH2 0x8AE PUSH0 DUP4 ADD DUP6 PUSH2 0x88C JUMP JUMPDEST PUSH2 0x8BB PUSH1 0x20 DUP4 ADD DUP5 PUSH2 0x7D2 JUMP JUMPDEST SWAP4 SWAP3 POP POP POP JUMP JUMPDEST PUSH2 0x8CB DUP2 PUSH2 0x883 JUMP JUMPDEST DUP2 EQ PUSH2 0x8D5 JUMPI PUSH0 PUSH0 REVERT JUMPDEST POP JUMP JUMPDEST PUSH0 DUP2 CALLDATALOAD SWAP1 POP PUSH2 0x8E6 DUP2 PUSH2 0x8C2 JUMP JUMPDEST SWAP3 SWAP2 POP POP JUMP JUMPDEST PUSH0 PUSH0 PUSH1 0x40 DUP4 DUP6 SUB SLT ISZERO PUSH2 0x902 JUMPI PUSH2 0x901 PUSH2 0x7FA JUMP JUMPDEST JUMPDEST PUSH0 PUSH2 0x90F DUP6 DUP3 DUP7 ADD PUSH2 0x844 JUMP JUMPDEST SWAP3 POP POP PUSH1 0x20 PUSH2 0x920 DUP6 DUP3 DUP7 ADD PUSH2 0x8D8 JUMP JUMPDEST SWAP2 POP POP SWAP3 POP SWAP3 SWAP1 POP JUMP JUMPDEST PUSH0 PUSH1 0x20 DUP3 DUP5 SUB SLT ISZERO PUSH2 0x93F JUMPI PUSH2 0x93E PUSH2 0x7FA JUMP JUMPDEST JUMPDEST PUSH0 PUSH2 0x94C DUP5 DUP3 DUP6 ADD PUSH2 0x8D8 JUMP JUMPDEST SWAP2 POP POP SWAP3 SWAP2 POP POP JUMP JUMPDEST PUSH2 0x95E DUP2 PUSH2 0x81D JUMP JUMPDEST DUP3 MSTORE POP POP JUMP JUMPDEST PUSH0 PUSH1 0x20 DUP3 ADD SWAP1 POP PUSH2 0x977 PUSH0 DUP4 ADD DUP5 PUSH2 0x955 JUMP JUMPDEST SWAP3 SWAP2 POP POP JUMP JUMPDEST PUSH0 PUSH1 0x20 DUP3 ADD SWAP1 POP PUSH2 0x990 PUSH0 DUP4 ADD DUP5 PUSH2 0x88C JUMP JUMPDEST SWAP3 SWAP2 POP POP JUMP JUMPDEST PUSH0 DUP2 SWAP1 POP SWAP2 SWAP1 POP JUMP JUMPDEST PUSH0 PUSH2 0x9B9 PUSH2 0x9B4 PUSH2 0x9AF DUP5 PUSH2 0x7FE JUMP JUMPDEST PUSH2 0x996 JUMP JUMPDEST PUSH2 0x7FE JUMP JUMPDEST SWAP1 POP SWAP2 SWAP1 POP JUMP JUMPDEST PUSH0 PUSH2 0x9CA DUP3 PUSH2 0x99F JUMP JUMPDEST SWAP1 POP SWAP2 SWAP1 POP JUMP JUMPDEST PUSH0 PUSH2 0x9DB DUP3 PUSH2 0x9C0 JUMP JUMPDEST SWAP1 POP SWAP2 SWAP1 POP JUMP JUMPDEST PUSH2 0x9EB DUP2 PUSH2 0x9D1 JUMP JUMPDEST DUP3 MSTORE POP POP JUMP JUMPDEST PUSH0 PUSH1 0x20 DUP3 ADD SWAP1 POP PUSH2 0xA04 PUSH0 DUP4 ADD DUP5 PUSH2 0x9E2 JUMP JUMPDEST SWAP3 SWAP2 POP POP JUMP JUMPDEST PUSH0 DUP3 DUP3 MSTORE PUSH1 0x20 DUP3 ADD SWAP1 POP SWAP3 SWAP2 POP POP JUMP JUMPDEST PUSH32 0x466F6E647572696C65206E7520617520666F737420696E636120766972617465 PUSH0 DUP3 ADD MSTORE POP JUMP JUMPDEST PUSH0 PUSH2 0xA4E PUSH1 0x20 DUP4 PUSH2 0xA0A JUMP JUMPDEST SWAP2 POP PUSH2 0xA59 DUP3 PUSH2 0xA1A JUMP JUMPDEST PUSH1 0x20 DUP3 ADD SWAP1 POP SWAP2 SWAP1 POP JUMP JUMPDEST PUSH0 PUSH1 0x20 DUP3 ADD SWAP1 POP DUP2 DUP2 SUB PUSH0 DUP4 ADD MSTORE PUSH2 0xA7B DUP2 PUSH2 0xA42 JUMP JUMPDEST SWAP1 POP SWAP2 SWAP1 POP JUMP JUMPDEST PUSH32 0x4E752073756E7465746920696E7265676973747261742063612062656E656669 PUSH0 DUP3 ADD MSTORE PUSH32 0x6369617200000000000000000000000000000000000000000000000000000000 PUSH1 0x20 DUP3 ADD MSTORE POP JUMP JUMPDEST PUSH0 PUSH2 0xADC PUSH1 0x24 DUP4 PUSH2 0xA0A JUMP JUMPDEST SWAP2 POP PUSH2 0xAE7 DUP3 PUSH2 0xA82 JUMP JUMPDEST PUSH1 0x40 DUP3 ADD SWAP1 POP SWAP2 SWAP1 POP JUMP JUMPDEST PUSH0 PUSH1 0x20 DUP3 ADD SWAP1 POP DUP2 DUP2 SUB PUSH0 DUP4 ADD MSTORE PUSH2 0xB09 DUP2 PUSH2 0xAD0 JUMP JUMPDEST SWAP1 POP SWAP2 SWAP1 POP JUMP JUMPDEST PUSH32 0x417469207265747261732064656A612076656E6974756C000000000000000000 PUSH0 DUP3 ADD MSTORE POP JUMP JUMPDEST PUSH0 PUSH2 0xB44 PUSH1 0x17 DUP4 PUSH2 0xA0A JUMP JUMPDEST SWAP2 POP PUSH2 0xB4F DUP3 PUSH2 0xB10 JUMP JUMPDEST PUSH1 0x20 DUP3 ADD SWAP1 POP SWAP2 SWAP1 POP JUMP JUMPDEST PUSH0 PUSH1 0x20 DUP3 ADD SWAP1 POP DUP2 DUP2 SUB PUSH0 DUP4 ADD MSTORE PUSH2 0xB71 DUP2 PUSH2 0xB38 JUMP JUMPDEST SWAP1 POP SWAP2 SWAP1 POP JUMP JUMPDEST PUSH32 0x4E487B7100000000000000000000000000000000000000000000000000000000 PUSH0 MSTORE PUSH1 0x11 PUSH1 0x4 MSTORE PUSH1 0x24 PUSH0 REVERT JUMPDEST PUSH0 PUSH2 0xBAF DUP3 PUSH2 0x883 JUMP JUMPDEST SWAP2 POP PUSH2 0xBBA DUP4 PUSH2 0x883 JUMP JUMPDEST SWAP3 POP DUP3 DUP3 MUL PUSH2 0xBC8 DUP2 PUSH2 0x883 JUMP JUMPDEST SWAP2 POP DUP3 DUP3 DIV DUP5 EQ DUP4 ISZERO OR PUSH2 0xBDF JUMPI PUSH2 0xBDE PUSH2 0xB78 JUMP JUMPDEST JUMPDEST POP SWAP3 SWAP2 POP POP JUMP JUMPDEST PUSH32 0x4E487B7100000000000000000000000000000000000000000000000000000000 PUSH0 MSTORE PUSH1 0x12 PUSH1 0x4 MSTORE PUSH1 0x24 PUSH0 REVERT JUMPDEST PUSH0 PUSH2 0xC1D DUP3 PUSH2 0x883 JUMP JUMPDEST SWAP2 POP PUSH2 0xC28 DUP4 PUSH2 0x883 JUMP JUMPDEST SWAP3 POP DUP3 PUSH2 0xC38 JUMPI PUSH2 0xC37 PUSH2 0xBE6 JUMP JUMPDEST JUMPDEST DUP3 DUP3 DIV SWAP1 POP SWAP3 SWAP2 POP POP JUMP JUMPDEST PUSH32 0x53756D61206465207265747261732065737465207A65726F0000000000000000 PUSH0 DUP3 ADD MSTORE POP JUMP JUMPDEST PUSH0 PUSH2 0xC77 PUSH1 0x18 DUP4 PUSH2 0xA0A JUMP JUMPDEST SWAP2 POP PUSH2 0xC82 DUP3 PUSH2 0xC43 JUMP JUMPDEST PUSH1 0x20 DUP3 ADD SWAP1 POP SWAP2 SWAP1 POP JUMP JUMPDEST PUSH0 PUSH1 0x20 DUP3 ADD SWAP1 POP DUP2 DUP2 SUB PUSH0 DUP4 ADD MSTORE PUSH2 0xCA4 DUP2 PUSH2 0xC6B JUMP JUMPDEST SWAP1 POP SWAP2 SWAP1 POP JUMP JUMPDEST PUSH0 PUSH1 0x40 DUP3 ADD SWAP1 POP PUSH2 0xCBE PUSH0 DUP4 ADD DUP6 PUSH2 0x955 JUMP JUMPDEST PUSH2 0xCCB PUSH1 0x20 DUP4 ADD DUP5 PUSH2 0x88C JUMP JUMPDEST SWAP4 SWAP3 POP POP POP JUMP JUMPDEST PUSH2 0xCDB DUP2 PUSH2 0x7C7 JUMP JUMPDEST DUP2 EQ PUSH2 0xCE5 JUMPI PUSH0 PUSH0 REVERT JUMPDEST POP JUMP JUMPDEST PUSH0 DUP2 MLOAD SWAP1 POP PUSH2 0xCF6 DUP2 PUSH2 0xCD2 JUMP JUMPDEST SWAP3 SWAP2 POP POP JUMP JUMPDEST PUSH0 PUSH1 0x20 DUP3 DUP5 SUB SLT ISZERO PUSH2 0xD11 JUMPI PUSH2 0xD10 PUSH2 0x7FA JUMP JUMPDEST JUMPDEST PUSH0 PUSH2 0xD1E DUP5 DUP3 DUP6 ADD PUSH2 0xCE8 JUMP JUMPDEST SWAP2 POP POP SWAP3 SWAP2 POP POP JUMP JUMPDEST PUSH32 0x446973747269627569726561206120696E63657075742064656A610000000000 PUSH0 DUP3 ADD MSTORE POP JUMP JUMPDEST PUSH0 PUSH2 0xD5B PUSH1 0x1B DUP4 PUSH2 0xA0A JUMP JUMPDEST SWAP2 POP PUSH2 0xD66 DUP3 PUSH2 0xD27 JUMP JUMPDEST PUSH1 0x20 DUP3 ADD SWAP1 POP SWAP2 SWAP1 POP JUMP JUMPDEST PUSH0 PUSH1 0x20 DUP3 ADD SWAP1 POP DUP2 DUP2 SUB PUSH0 DUP4 ADD MSTORE PUSH2 0xD88 DUP2 PUSH2 0xD4F JUMP JUMPDEST SWAP1 POP SWAP2 SWAP1 POP JUMP JUMPDEST PUSH32 0x506F6E6465726520696E76616C69646100000000000000000000000000000000 PUSH0 DUP3 ADD MSTORE POP JUMP JUMPDEST PUSH0 PUSH2 0xDC3 PUSH1 0x10 DUP4 PUSH2 0xA0A JUMP JUMPDEST SWAP2 POP PUSH2 0xDCE DUP3 PUSH2 0xD8F JUMP JUMPDEST PUSH1 0x20 DUP3 ADD SWAP1 POP SWAP2 SWAP1 POP JUMP JUMPDEST PUSH0 PUSH1 0x20 DUP3 ADD SWAP1 POP DUP2 DUP2 SUB PUSH0 DUP4 ADD MSTORE PUSH2 0xDF0 DUP2 PUSH2 0xDB7 JUMP JUMPDEST SWAP1 POP SWAP2 SWAP1 POP JUMP JUMPDEST PUSH0 PUSH2 0xE01 DUP3 PUSH2 0x883 JUMP JUMPDEST SWAP2 POP PUSH2 0xE0C DUP4 PUSH2 0x883 JUMP JUMPDEST SWAP3 POP DUP3 DUP3 ADD SWAP1 POP DUP1 DUP3 GT ISZERO PUSH2 0xE24 JUMPI PUSH2 0xE23 PUSH2 0xB78 JUMP JUMPDEST JUMPDEST SWAP3 SWAP2 POP POP JUMP INVALID LOG2 PUSH5 0x6970667358 0x22 SLT KECCAK256 AND SWAP7 DUP15 PUSH8 0xAC3F4FD19786CD9C 0xF 0x27 0x27 DUP1 0xCB 0x4D CALLER COINBASE RETF 0x4F 0xB9 0x22 ORIGIN 0xF 0x2E PUSH16 0x537870CB64736F6C634300081E003300 "
				},
				"gasEstimates": {
					"creation": {
						"codeDepositCost": "736000",
						"executionCost": "infinite",
						"totalCost": "infinite"
					},
					"external": {
						"addShareholder(address,uint256)": "infinite",
						"claim()": "infinite",
						"fundsReady()": "2467",
						"owner()": "2536",
						"receiveFunds(uint256)": "infinite",
						"renounceOwnership()": "infinite",
						"shareholders(address)": "5112",
						"token()": "infinite",
						"totalFundsReceived()": "2469",
						"transferOwnership(address)": "infinite"
					}
				},
				"methodIdentifiers": {
					"addShareholder(address,uint256)": "75724990",
					"claim()": "4e71d92d",
					"fundsReady()": "07351832",
					"owner()": "8da5cb5b",
					"receiveFunds(uint256)": "8827e09b",
					"renounceOwnership()": "715018a6",
					"shareholders(address)": "5c2930ad",
					"token()": "fc0c546a",
					"totalFundsReceived()": "bf27f585",
					"transferOwnership(address)": "f2fde38b"
				}
			},
			"storageLayout": {
				"storage": [
					{
						"astId": 8,
						"contract": "contracts/DistributeFunding.sol:DistributeFunding",
						"label": "_owner",
						"offset": 0,
						"slot": "0",
						"type": "t_address"
					},
					{
						"astId": 942,
						"contract": "contracts/DistributeFunding.sol:DistributeFunding",
						"label": "token",
						"offset": 0,
						"slot": "1",
						"type": "t_contract(MyToken)1218"
					},
					{
						"astId": 952,
						"contract": "contracts/DistributeFunding.sol:DistributeFunding",
						"label": "shareholders",
						"offset": 0,
						"slot": "2",
						"type": "t_mapping(t_address,t_struct(Shareholder)947_storage)"
					},
					{
						"astId": 954,
						"contract": "contracts/DistributeFunding.sol:DistributeFunding",
						"label": "totalFundsReceived",
						"offset": 0,
						"slot": "3",
						"type": "t_uint256"
					},
					{
						"astId": 957,
						"contract": "contracts/DistributeFunding.sol:DistributeFunding",
						"label": "fundsReady",
						"offset": 0,
						"slot": "4",
						"type": "t_bool"
					}
				],
				"types": {
					"t_address": {
						"encoding": "inplace",
						"label": "address",
						"numberOfBytes": "20"
					},
					"t_bool": {
						"encoding": "inplace",
						"label": "bool",
						"numberOfBytes": "1"
					},
					"t_contract(MyToken)1218": {
						"encoding": "inplace",
						"label": "contract MyToken",
						"numberOfBytes": "20"
					},
					"t_mapping(t_address,t_struct(Shareholder)947_storage)": {
						"encoding": "mapping",
						"key": "t_address",
						"label": "mapping(address => struct DistributeFunding.Shareholder)",
						"numberOfBytes": "32",
						"value": "t_struct(Shareholder)947_storage"
					},
					"t_struct(Shareholder)947_storage": {
						"encoding": "inplace",
						"label": "struct DistributeFunding.Shareholder",
						"members": [
							{
								"astId": 944,
								"contract": "contracts/DistributeFunding.sol:DistributeFunding",
								"label": "weight",
								"offset": 0,
								"slot": "0",
								"type": "t_uint256"
							},
							{
								"astId": 946,
								"contract": "contracts/DistributeFunding.sol:DistributeFunding",
								"label": "withdrawn",
								"offset": 0,
								"slot": "1",
								"type": "t_bool"
							}
						],
						"numberOfBytes": "64"
					},
					"t_uint256": {
						"encoding": "inplace",
						"label": "uint256",
						"numberOfBytes": "32"
					}
				}
			},
			"userdoc": {
				"kind": "user",
				"methods": {},
				"version": 1
			}
		}
	}
}